:100000000C94D9000C9401010C9401010C94010191
:100010000C9401010C9401010C9401010C94010158
:100020000C9401010C9401010C9407040C947004CD
:100030000C9401010C9401010C9401010C94010138
:100040000C9401010C9401010C9401010C94010128
:100050000C9401010C9401010C9401010C94B20662
:100060000C9401010C9401010C9401010C94010108
:100070000C9401010C9401010C9401010C940101F8
:100080000C9401010C9401010C9401010C940101E8
:100090000C9401010C9401010C9401010C940101D8
:1000A0000C9401010C9401010C94010129012C0113
:1000B0001B011F0123014D014D014D013001340190
:1000C00038013E0142014D014801000000002400BA
:1000D00027002A002D003000080B00020202010058
:1000E000090400000102020000052400100105249B
:1000F000010101042402060524060001070581030D
:1001000010004009040100020A0000000705020275
:1001100040000007058302400000040309041201A7
:100120000002EF020140401C3805000101020301FA
:1001300054696C6C204861726261756D006674442C
:1001400075696E6F0000000000250028002B002E4E
:100150000031000404040404030405020202020442
:100160000302020202060606060606040402020252
:1001700004040408020110408040102040804080A8
:10018000080204018040201002011080102040402D
:10019000200000000200090F0000030401000C0011
:1001A000000000000000000000000000000000004F
:1001B000FC0611241FBECFEFDAE0DEBFCDBF11E099
:1001C000A0E0B1E0E0EEFFE002C005900D92A632A3
:1001D000B107D9F721E0A6E2B1E001C01D92A5392F
:1001E000B207E1F710E0C9EDD0E004C02197FE01AD
:1001F0000E94E307C83DD107C9F70E9411070C947C
:10020000EE070C940000EEE9F1E04491EFE7F1E035
:100210002491E0E6F1E09491992309F451C044233C
:10022000E1F150E0FA013197EF30F105B0F5EA5A0B
:10023000FF4F0C94E307309180003F7707C0309167
:1002400080003F7D03C030918000377F3093800075
:1002500024C034B53F7702C034B53F7D34BD1DC0E6
:10026000309190003F7707C0309190003F7D03C0F0
:1002700030919000377F309390000FC03091C000D4
:100280003F7703C03091C0003F7D3093C00005C070
:100290003091C200377F3093C200E92FF0E0EE0FBB
:1002A000FF1FEB5BFE4FA591B4919FB7F894EC91C3
:1002B000811103C020952E2301C02E2B2C939FBFAC
:1002C0000895FC0180919401811103C08FEF9FEF8D
:1002D00008959FB7F89482E08093E9002091F2009E
:1002E00030E01216130614F421E030E02115310538
:1002F00051F084E6809393018091F1008083809196
:10030000F200882319F09FBFC90108958BE68093FE
:10031000E800F9CF2FB7F89483E08093E90090913B
:10032000E800892F807295FF04C09091F20080E46C
:10033000891B2FBF0895CF92DF92EF92FF920F9308
:100340001F93CF93DF936C017A018B01C0E0D0E063
:10035000CE15DF0589F0D8016D918D01D601ED91A3
:10036000FC910190F081E02DC6010995892B11F4D3
:100370007E0102C02196ECCFC701DF91CF911F9182
:100380000F91FF90EF90DF90CF90089580918B01B7
:1003900081110DC082E08093870184E08093880101
:1003A00010928A011092890181E080938B0187E885
:1003B00091E00895CF93DF931F92CDB7DEB76983A5
:1003C000DC01ED91FC910280F381E02D41E050E0F1
:1003D000BE016F5F7F4F09950F90DF91CF91089518
:1003E00083E08093E9008091F200882319F08AE38A
:1003F0008093E80008950E948A0190E00895CF93C9
:10040000DF931F92CDB7DEB7FC018485958597FDFC
:1004100005C02FEF3FEF358724870BC0CE01019633
:100420000E946101019719F4898190E002C08FEF69
:100430009FEF0F90DF91CF9108950F931F93CF936C
:10044000DF931F92CDB7DEB78C01FC0184859585C3
:1004500097FF0EC0CE0101960E946101019719F429
:10046000298130E002C02FEF3FEFF8013587248764
:10047000F801848595850F90DF91CF911F910F91A1
:100480000895FC018485958597FD0BC09FB7F8946E
:1004900082E08093E9008091F2009FBF90E0019696
:1004A00008959FB7F89482E08093E9008091F2006C
:1004B0009FBF90E00895089580E090E008954091F6
:1004C00031015091320120912F01309130014217BA
:1004D0005307B4F49091E8009570E1F39091E8002F
:1004E00092FD19C08093F100809131019091320109
:1004F00001968F739927892B19F48EEF8093E8006A
:100500008091310190913201019690933201809354
:10051000310181E0089580E00895CF92DF92EF925B
:10052000FF920F931F93CF93DF931F92CDB7DEB748
:10053000182F062FE42E862F880F8E5F99830E9436
:100540005F0283E00E945F02F12EC12E9981D92EB5
:100550008C2D8F19801798F4F601E7FE02C0849164
:1005600001C080810E945F02182F80E00E945F021C
:100570008123FFEFCF1ADF0A8111EACF01C081E0AA
:100580000F90DF91CF911F910F91FF90EF90DF902F
:10059000CF900895DF92EF92FF920F931F93CF9326
:1005A000DF93D82E8A017B01E40EF51EEB01CE15F8
:1005B000DF0571F0D7FE03C0FE01849101C0888180
:1005C0000E945F0221968111F2CF8FEF9FEF01C051
:1005D000C801DF91CF911F910F91FF90EF90DF90B5
:1005E00008950F931F93CF93DF931F92CDB7DEB77C
:1005F00082E0898342E450E068ED70E080E80E9488
:10060000CA020E94C601DC0112960D911C9113973B
:100610000115110569F0D801ED91FC910280F3817B
:10062000E02DBE016F5F7F4FC801099597FF07C09E
:1006300089810F90DF91CF911F910F910895F8015B
:1006400000851185E5CF3FB7F89480912B019091FB
:100650002C01A0912D01B0912E0126B5A89B05C0BB
:100660002F3F19F00196A11DB11D3FBFBA2FA92F31
:10067000982F8827820F911DA11DB11DBC01CD01AE
:1006800042E0660F771F881F991F4A95D1F708959A
:100690008F929F92AF92BF92CF92DF92EF92FF9292
:1006A0006B017C010E9423034B015C01C114D10446
:1006B000E104F104F1F00E942303DC01CB0188196D
:1006C0009909AA09BB09883E9340A105B10570F3B9
:1006D00021E0C21AD108E108F10888EE880E83E013
:1006E000981EA11CB11CC114D104E104F10419F736
:1006F000DDCFFF90EF90DF90CF90BF90AF909F90B5
:100700008F9008958F929F92AF92BF92CF92DF9277
:10071000EF92FF920F931F93CF93DF935C016B01D6
:100720007A0180910B01882309F459C080919401CA
:10073000882309F454C08091360180FF05C0809160
:10074000E00082608093E000E70110E00AEF83E0C0
:10075000882E9AE3992E2097D1F10E948A01811167
:1007600009C00150E1F161E070E080E090E00E949A
:100770004803F1CF282F30E0C217D3070CF48C2F99
:100780004FB7F8948092E9009091E80095FF1DC062
:10079000282F30E0C21BD30BF601982F915020F088
:1007A00081918093F100FACFC20ED31E112319F06C
:1007B0009092E80009C08091E80085FD06C0909203
:1007C000E80011E0209709F010E04FBFC4CF1111ED
:1007D000C4CF84E6809335011E141F0444F081E0E9
:1007E00090E0F5019383828380E090E001C0C7012F
:1007F000DF91CF911F910F91FF90EF90DF90CF90FD
:10080000BF90AF909F908F9008950E94E9071F922C
:100810000F920FB60F9211248F939F938091E10056
:100820009091E100937F9093E10083FF0FC01092BD
:10083000E90091E09093EB001092EC0092E390932A
:10084000ED001092940198E09093F00082FF1CC09C
:1008500093E09093E9009091F200992319F09AE3C4
:100860009093E80090913501992329F090913501FA
:1008700091509093350190919301992329F0909193
:10088000930191509093930184FF10C08091E200F6
:100890008E7E81608093E2008091E1008F7E809364
:1008A000E100809136018E7E806111C080FF11C011
:1008B0008091E2008E7E80618093E2008091E10071
:1008C0008E7E8093E100809136018E7E81608093E0
:1008D00036019F918F910F900FBE0F901F9018952A
:1008E0001F920F920FB60F921124CF92DF92EF92C8
:1008F000FF920F931F932F933F934F935F936F93A9
:100900007F938F939F93AF93BF93EF93FF93CF9377
:10091000DF93CDB7DEB76C97DEBFCDBF1092E90095
:100920008091E80083FFFFC1FE017596DE2ECF2E79
:1009300088E08E0F8E1729F09091F1009083319608
:10094000F9CF84E68093930182EF8093E8008D894C
:1009500087FF05C09091E80090FFFCCF03C09EEF99
:100960009093E800982F907609F0C5C09E892F8952
:10097000188D91110CC0803829F480913401809336
:10098000F10002C01092F1001092F1004FC1422F0D
:1009900050E0512B913051F4811148C14130510543
:1009A00009F044C1809134018D7F0BC0933061F414
:1009B00081113CC14130510509F038C180913401A9
:1009C00082608093340132C1953041F48091E80017
:1009D00080FFFCCF20682093E30028C1963009F007
:1009E0005EC0EB8CFC8C1092E900109232011092E8
:1009F0003101123091F51092300110922F010E94B6
:100A0000F10299E0BE016F5F7F4FDB01E92F1D927C
:100A1000EA95E9F799831A8391E09E8390EA988793
:100A20009AEF99872091310130913201275F3F4F32
:100A30003C832B838D831092E90010923201109237
:100A40003101F0923001E0922F0149E050E080E066
:100A50000E94CA020E94F102E9C0F0923001E092C5
:100A60002F010E94C601DC011296ED90FC901397B5
:100A7000E114F10409F4C7C0D701ED91FC910480A1
:100A8000F581E02D6D2D7C2DC7010995009719F09A
:100A90000CF0CCC0CFC0F701E084F184E9CF9730EF
:100AA00009F4C8C0983021F481E08093F100BEC001
:100AB000993009F0BBC0837009F0BCC0EDE0F1E0F3
:100AC00081E021E036E39081992361F08093E90091
:100AD0002093EB0091919093EC003093ED008F5FA9
:100AE000873089F78EE78093EA001092EA008F89B9
:100AF000809394019BC08B8D9C8D1092E900109285
:100B00003201109231019093300180932F01898D31
:100B100081115FC08E899D89913A59F4813209F023
:100B200089C047E050E064E071E080E00E94CA02C2
:100B30007DC0913209F07EC0833289F4888D90E0C7
:100B4000982F88272F89822BA0E0B0E080930001A6
:100B500090930101A0930201B093030167C080321A
:100B6000B1F48091E80082FFFCCFE4E0F1E087E09F
:100B70008E0F8E1729F09091F10090833196F9CF66
:100B800084E6809393018BEF8093E80006C0823265
:100B900009F04CC08F8980930B0180913301882329
:100BA00019F0EEEFFAE002C0E0E0F8E08091040115
:100BB00090910501A0910601B0910701803B9440FE
:100BC000A105B10509F07AC080910B0180FF92C0A8
:100BD00075C00E94C601DC0112960D911C911397FD
:100BE0000115110539F1D801ED91FC910190F081C9
:100BF000E02D6D2D7C2DC8010995811117C0F801DC
:100C000000851185EDCF113009F44EC0133091F4F9
:100C10008F89882309F445C0823081F440E867E079
:100C20008DE391E00E948D02882321F08EEF809366
:100C3000E80079C081E28093EB0075C0813029F42F
:100C400040E86CE080E391E0EDCF833099F70E94BB
:100C5000C601DC011296ED90FC9013978E010F5F98
:100C60001F4F6801E114F10479F0D701ED91FC9177
:100C70000680F781E02DB801C7010995080F111D05
:100C8000F701E084F184EECFD8011C92F6010190C7
:100C90000020E9F73197BF016C197D0940E0C601DA
:100CA000C1CF6AE171E002C06EE171E061157105CA
:100CB00009F2FB01449150E080E838CF0FB6F89478
:100CC000A895809160008861809360001092600018
:100CD0000FBEA895EE3F2AE0F20739F08091FE0A98
:100CE0009091FF0A91838083A1CF1092FF0A109206
:100CF000FE0A9CCFEE3F8AE0F80731F080819181B7
:100D00009093FF0A8093FE0A87E797E79183808399
:100D10009BE088E10FB6F894A895809360000FBE21
:100D20009093600083CF6C960FB6F894DEBF0FBE31
:100D3000CDBFDF91CF91FF91EF91BF91AF919F9187
:100D40008F917F916F915F914F913F912F911F9163
:100D50000F91FF90EF90DF90CF900F900FBE0F900C
:100D60001F9018951F920F920FB60F9211242F9378
:100D70003F938F939F93AF93BF938091270190915F
:100D80002801A0912901B0912A013091260123E088
:100D9000230F2D3720F40196A11DB11D05C026E8B3
:100DA000230F0296A11DB11D2093260180932701D8
:100DB00090932801A0932901B0932A0180912B01DF
:100DC00090912C01A0912D01B0912E010196A11DB1
:100DD000B11D80932B0190932C01A0932D01B09312
:100DE0002E01BF91AF919F918F913F912F910F90C5
:100DF0000FBE0F901F901895E7E3F1E01382128267
:100E000088EE93E0A0E0B0E084839583A683B78367
:100E100087E191E0918380838FEF9FEF95878487AF
:100E20000895789484B5826084BD84B5816084BD62
:100E300085B5826085BD85B5816085BD80916E0078
:100E4000816080936E0010928100809181008260A9
:100E500080938100809181008160809381008091E6
:100E600080008160809380008091910082608093F7
:100E70009100809191008160809391008091900019
:100E80008160809390008091C10084608093C10054
:100E90008091C10082608093C1008091C100816017
:100EA0008093C1008091C30081608093C3008091D2
:100EB000C00082608093C0008091C20081608093F6
:100EC000C20080917A00846080937A0080917A00D9
:100ED000826080937A0080917A00816080937A00AA
:100EE00080917A00806880937A0010929401109229
:100EF0003401109236018091D70081608093D70031
:100F000080EA8093D80089B5806189BD89B5826007
:100F100089BD09B400FEFDCF61E070E080E090E0A3
:100F20000E9448038091D8008F7C80618093D80014
:100F30008091E000807F8093E0008091E1008E7ED0
:100F40008093E1008DE08093E200EEEFFFE7859172
:100F500094918B3F9C4D19F481E080933301EFE72E
:100F6000F1E02491E0E6F1E08491882399F090E0AB
:100F7000880F991FFC01E653FF4FA591B491FC0126
:100F8000EB5BFE4F859194918FB7F894EC91E22B37
:100F9000EC938FBFC0E0D0E081E00E94030168EED7
:100FA00073E080E090E00E94480380E00E9403012B
:100FB00068EE73E080E090E00E944803209761F3C0
:100FC0000E940000E9CFEE0FFF1F0590F491E02D85
:100FD000099481E090E0F8940C94EE07F894FFCF28
:100FE000FFFFFFFF00E100000000000000C1808162
:100FF00000000000000000DA018203FB01F0014163
:0610000002FF011D0200C9
:00000001FF
