:100000000C948E000C94B6000C94B6000C94B600C0
:100010000C94B6000C94B6000C94B6000C94B60088
:100020000C94B6000C94B6000C9476030C94DF0389
:100030000C94B6000C94B6000C94B6000C94B60068
:100040000C94B6000C94B6000C94B6000C94B60058
:100050000C94B6000C94B6000C94B6000C942106D7
:100060000C94B6000C94B6000C94B6000C94B60038
:100070000C94B6000C94B6000C94B6000C94B60028
:100080000C94B6000C94B6000C94B6000C94B60018
:100090000C94B6000C94B6000C94B6000C94B60008
:1000A0000C94B6000C94B6000C94B600080B000239
:1000B0000202010009040000010202000005240000
:1000C0001001052401010104240206052406000193
:1000D0000705810310004009040100020A00000026
:1000E00007050202400000070583024000000403E8
:1000F000090412010002EF020140401C3805000112
:100100000102030154696C6C204861726261756D73
:100110000066744475696E6F0000980711241FBE55
:10012000CFEFDAE0DEBFCDBF11E0A0E0B1E0E8EB59
:10013000FFE002C005900D92AA34B107D9F721E083
:10014000AAE4B1E001C01D92AB3BB207E1F710E0B9
:10015000CEE8D0E004C02197FE010E94CF07CD3841
:10016000D107C9F70E946B060C94DA070C940000C3
:10017000FC0180916A01811103C08FEF9FEF089508
:100180009FB7F89482E08093E9002091F20030E07C
:100190001216130614F421E030E02115310551F058
:1001A00084E6809369018091F10080838091F20060
:1001B000882319F09FBFC90108958BE68093E8005A
:1001C000F9CF2FB7F89483E08093E9009091E8008D
:1001D000892F807295FF04C09091F20080E4891B02
:1001E0002FBF08958091610181110DC082E080933D
:1001F0005D0184E080935E011092600110925F01C6
:1002000081E0809361018DE591E008954091550171
:1002100050915601209153013091540142175307D8
:10022000B4F49091E8009570E1F39091E80092FDAC
:1002300019C08093F100809155019091560101966B
:100240008F739927892B19F48EEF8093E8008091A2
:100250005501909156010196909356018093550156
:1002600081E0089580E00895CF92DF92EF92FF92AF
:100270000F931F93CF93DF931F92CDB7DEB7182F45
:10028000062FE42E862F880F8E5F99830E94060129
:1002900083E00E940601F12EC12E9981D92E8C2D6A
:1002A0008F19801798F4F601E7FE02C0849101C00F
:1002B00080810E940601182F80E00E9406018123A0
:1002C000FFEFCF1ADF0A8111EACF01C081E00F9062
:1002D000DF91CF911F910F91FF90EF90DF90CF9022
:1002E0000895DF92EF92FF920F931F93CF93DF93C6
:1002F000D82E8A017B01E40EF51EEB01CE15DF0539
:1003000071F0D7FE03C0FE01849101C088810E9474
:10031000060121968111F2CF8FEF9FEF01C0C80136
:10032000DF91CF911F910F91FF90EF90DF90089593
:100330000F931F93CF93DF931F92CDB7DEB782E069
:10034000898342E450E06CEA70E080E80E94710129
:100350000E94F200DC0112960D911C911397011579
:10036000110569F0D801ED91FC910280F381E02D37
:10037000BE016F5F7F4FC801099597FF07C0898154
:100380000F90DF91CF911F910F910895F801008593
:100390001185E5CFCF92DF92EF92FF920F931F93DB
:1003A000CF93DF936C017A018B01C0E0D0E0CE15D2
:1003B000DF0589F0D8016D918D01D601ED91FC9199
:1003C0000190F081E02DC6010995892B11F47E0181
:1003D00002C02196ECCFC701DF91CF911F910F9101
:1003E000FF90EF90DF90CF900895CF93DF931F920F
:1003F000CDB7DEB76983DC01ED91FC910280F3811A
:10040000E02D41E050E0BE016F5F7F4F09950F90F6
:10041000DF91CF91089583E08093E9008091F2000D
:10042000882319F08AE38093E80008950E94E10090
:1004300090E00895CF93DF931F92CDB7DEB7FC0114
:100440008485958597FD05C02FEF3FEF358724877D
:100450000BC0CE0101960E94B800019719F4898162
:1004600090E002C08FEF9FEF0F90DF91CF91089542
:100470000F931F93CF93DF931F92CDB7DEB78C01FD
:10048000FC018485958597FF0EC0CE0101960E94E0
:10049000B800019719F4298130E002C02FEF3FEF37
:1004A000F80135872487F801848595850F90DF91C1
:1004B000CF911F910F910895FC018485958597FD3B
:1004C0000BC09FB7F89482E08093E9008091F2001E
:1004D0009FBF90E0019608959FB7F89482E08093C3
:1004E000E9008091F2009FBF90E00895089580E0B8
:1004F00090E008953FB7F89480914F01909150019A
:10050000A0915101B091520126B5A89B05C02F3F83
:1005100019F00196A11DB11D3FBFBA2FA92F982F29
:100520008827820F911DA11DB11DBC01CD0142E0A4
:10053000660F771F881F991F4A95D1F708958F92EC
:100540009F92AF92BF92CF92DF92EF92FF926B0198
:100550007C010E947A024B015C01C114D104E104C8
:10056000F104F1F00E947A02DC01CB0188199909AB
:10057000AA09BB09883E9340A105B10570F321E0AB
:10058000C21AD108E108F10888EE880E83E0981EAF
:10059000A11CB11CC114D104E104F10419F7DDCF91
:1005A000FF90EF90DF90CF90BF90AF909F908F9093
:1005B00008958F929F92AF92BF92CF92DF92EF9267
:1005C000FF920F931F93CF93DF935C016B017A012E
:1005D00080910B01882309F459C080916A01882316
:1005E00009F454C08091590180FF05C08091E0005A
:1005F00082608093E000E70110E00AEF83E0882E3C
:100600009AE3992E2097D1F10E94E100811109C04F
:100610000150E1F161E070E080E090E00E949F0213
:10062000F1CF282F30E0C217D3070CF48C2F4FB72F
:10063000F8948092E9009091E80095FF1DC0282F62
:1006400030E0C21BD30BF601982F915020F081911E
:100650008093F100FACFC20ED31E112319F09092AD
:10066000E80009C08091E80085FD06C09092E8008E
:1006700011E0209709F010E04FBFC4CF1111C4CF93
:1006800084E6809357011E141F0444F081E090E03B
:10069000F5019383828380E090E001C0C701DF9180
:1006A000CF911F910F91FF90EF90DF90CF90BF906F
:1006B000AF909F908F900895BC01009791F0FC013E
:1006C00001900020E9F73197AF01481B590BE091E9
:1006D0006B01F0916C010280F381E02D8BE691E0DB
:1006E000099480E090E008950E94D5071F920F9230
:1006F0000FB60F9211248F939F938091E1009091F8
:10070000E100937F9093E10083FF0FC01092E90016
:1007100091E09093EB001092EC0092E39093ED0047
:1007200010926A0198E09093F00082FF1CC093E061
:100730009093E9009091F200992319F09AE3909335
:10074000E80090915701992329F090915701915019
:100750009093570190916901992329F09091690133
:1007600091509093690184FF10C08091E2008E7EC9
:1007700081608093E2008091E1008F7E8093E100B0
:10078000809159018E7E806111C080FF11C08091DF
:10079000E2008E7E80618093E2008091E1008E7E97
:1007A0008093E100809159018E7E81608093590190
:1007B0009F918F910F900FBE0F901F9018951F92D1
:1007C0000F920FB60F921124CF92DF92EF92FF9209
:1007D0000F931F932F933F934F935F936F937F9349
:1007E0008F939F93AF93BF93EF93FF93CF93DF9339
:1007F000CDB7DEB76C97DEBFCDBF1092E900809118
:10080000E80083FFFFC1FE017596DE2ECF2E88E043
:100810008E0F8E1729F09091F10090833196F9CFC9
:1008200084E68093690182EF8093E8008D8987FFD9
:1008300005C09091E80090FFFCCF03C09EEF90931D
:10084000E800982F907609F0C5C09E892F89188DF1
:1008500091110CC0803829F480915A018093F100E5
:1008600002C01092F1001092F1004FC1422F50E0EF
:10087000512B913051F4811148C14130510509F09B
:1008800044C180915A018D7F0BC0933061F4811176
:100890003CC14130510509F038C180915A01826054
:1008A00080935A0132C1953041F48091E80080FF75
:1008B000FCCF20682093E30028C1963009F05EC089
:1008C000EB8CFC8C1092E9001092560110925501AD
:1008D000123091F510925401109253010E94980128
:1008E00099E0BE016F5F7F4FDB01E92F1D92EA9512
:1008F000E9F799831A8391E09E8390EA98879AEFAB
:1009000099872091550130915601275F3F4F3C83D5
:100910002B838D831092E90010925601109255019D
:10092000F0925401E092530149E050E080E00E94CF
:1009300071010E949801E9C0F0925401E0925301C4
:100940000E94F200DC011296ED90FC901397E114E6
:10095000F10409F4C7C0D701ED91FC910480F58141
:10096000E02D6D2D7C2DC7010995009719F00CF035
:10097000CCC0CFC0F701E084F184E9CF973009F40F
:10098000C8C0983021F481E08093F100BEC0993056
:1009900009F0BBC0837009F0BCC0EFE1F1E081E079
:1009A00021E036E39081992361F08093E900209360
:1009B000EB0091919093EC003093ED008F5F8730C6
:1009C00089F78EE78093EA001092EA008F8980937E
:1009D0006A019BC08B8D9C8D1092E900109256018C
:1009E000109255019093540180935301898D811188
:1009F0005FC08E899D89913A59F4813209F089C08E
:100A000047E050E064E071E080E00E9471017DC049
:100A1000913209F07EC0833289F4888D90E0982F5E
:100A200088272F89822BA0E0B0E08093000190936B
:100A30000101A0930201B093030167C08032B1F4B9
:100A40008091E80082FFFCCFE4E0F1E087E08E0FC8
:100A50008E1729F09091F10090833196F9CF84E6BA
:100A6000809369018BEF8093E80006C0823209F021
:100A70004CC08F8980930B0180915801882319F015
:100A8000EEEFFAE002C0E0E0F8E08091040190911E
:100A90000501A0910601B0910701803B9440A1059A
:100AA000B10509F07AC080910B0180FF92C075C03A
:100AB0000E94F200DC0112960D911C911397011512
:100AC000110539F1D801ED91FC910190F081E02DF3
:100AD0006D2D7C2DC8010995811117C0F801008585
:100AE0001185EDCF113009F44EC0133091F48F8988
:100AF000882309F445C0823081F440E867E081E151
:100B000091E00E943401882321F08EEF8093E80069
:100B100079C081E28093EB0075C0813029F440E810
:100B20006CE084E091E0EDCF833099F70E94F20011
:100B3000DC011296ED90FC9013978E010F5F1F4F12
:100B40006801E114F10479F0D701ED91FC91068080
:100B5000F781E02DB801C7010995080F111DF701B4
:100B6000E084F184EECFD8011C92F60101900020C0
:100B7000E9F73197BF016C197D0940E0C601C1CF8B
:100B80006EEE70E002C062EF70E06115710509F26F
:100B9000FB01449150E080E838CF0FB6F894A89557
:100BA00080916000886180936000109260000FBEA9
:100BB000A895EE3F2AE0F20739F08091FE0A909165
:100BC000FF0A91838083A1CF1092FF0A1092FE0A40
:100BD0009CCFEE3F8AE0F80731F0808191819093BD
:100BE000FF0A8093FE0A87E797E7918380839BE063
:100BF00088E10FB6F894A895809360000FBE90939B
:100C0000600083CF6C960FB6F894DEBF0FBECDBFE9
:100C1000DF91CF91FF91EF91BF91AF919F918F9114
:100C20007F916F915F914F913F912F911F910F9104
:100C3000FF90EF90DF90CF900F900FBE0F901F901E
:100C400018951F920F920FB60F9211242F933F9376
:100C50008F939F93AF93BF9380914B0190914C01E1
:100C6000A0914D01B0914E0130914A0123E0230F34
:100C70002D3720F40196A11DB11D05C026E8230FD4
:100C80000296A11DB11D20934A0180934B019093C0
:100C90004C01A0934D01B0934E0180914F01909172
:100CA0005001A0915101B09152010196A11DB11DB9
:100CB00080934F0190935001A0935101B093520142
:100CC000BF91AF919F918F913F912F910F900FBE48
:100CD0000F901F901895CF93DF93CDB7DEB7A197F4
:100CE0000FB6F894DEBF0FBECDBF789484B5826096
:100CF00084BD84B5816084BD85B5826085BD85B5C0
:100D0000816085BD80916E00816080936E0010923D
:100D100081008091810082608093810080918100B8
:100D20008160809381008091800081608093800049
:100D30008091910082608093910080919100816008
:100D400080939100809190008160809390008091C9
:100D5000C10084608093C1008091C1008260809353
:100D6000C1008091C10081608093C1008091C30067
:100D700081608093C3008091C00082608093C00036
:100D80008091C20081608093C20080917A0084606B
:100D900080937A0080917A00826080937A008091BB
:100DA0007A00816080937A0080917A0080688093D5
:100DB0007A0010926A0110925A01109259018091A2
:100DC000D70081608093D70080EA8093D80089B5EE
:100DD000806189BD89B5826089BD09B400FEFDCFFF
:100DE00061E070E080E090E00E949F028091D80076
:100DF0008F7C80618093D8008091E000807F809319
:100E0000E0008091E1008E7E8093E1008DE0809390
:100E1000E200EEEFFFE7859194918B3F9C4D19F432
:100E200081E0809358018FEF9FEF9093780180933A
:100E3000770110910B016AE070E080E090E00E9481
:100E40009F021123B1F385E291E00E945C038CE3E1
:100E500091E00E945C038AE0882E912CA12CB12C99
:100E600000E010E08FE391E00E945C03C0905B0122
:100E7000D0905C010D2C000CEE08FF08F7FE26C098
:100E8000E0916B01F0916C010190F081E02D6DE239
:100E90008BE691E0099522273327A9012C193D09FA
:100EA0004E095F0919A2CE0181967C01CA01B901E0
:100EB000A50194010E94AD07605DF70162937F0177
:100EC000211531054105510589F715C0A701960186
:100ED00019A2CE0181967C01CA01B901A501940134
:100EE0000E94AD07605DF70162937F012115310516
:100EF0004105510589F7C7010E945C038CE391E02D
:100F00000E945C0380915B0190915C01019690933B
:100F10005C0180935B0168EE73E080E090E00E94EA
:100F20009F020115110509F49DCF0E9400009ACF80
:100F3000EBE6F1E01382128288EE93E0A0E0B0E0ED
:100F400084839583A683B78380E191E09183808336
:100F50008FEF9FEF958784870895A1E21A2EAA1B31
:100F6000BB1BFD010DC0AA1FBB1FEE1FFF1FA21759
:100F7000B307E407F50720F0A21BB30BE40BF50B56
:100F8000661F771F881F991F1A9469F760957095DF
:100F9000809590959B01AC01BD01CF010895EE0FA6
:100FA000FF1F0590F491E02D099481E090E0F89402
:080FB0000C94DA07F894FFCF5E
:100FB800FFFFFFFF00E1000000000000000000004C
:100FC800F501D90216020B025C021A02380200C1AE
:100FD800808100000066744475696E6F20434F4D30
:100FE8003A2D506F72742074657374000D0A005A9C
:0A0FF800C3A4686C65723A20000083
:00000001FF
