:100000000C94D8040C9400050C9400050C942E0B51
:100010000C94090B0C9400050C9400050C9400053D
:100020000C9400050C94D30A0C94EE060C9465070E
:100030000C9400050C9400050C9400050C9400052C
:100040000C9400050C9400050C9400050C9400051C
:100050000C9400050C9400050C9400050C94890A7E
:100060000C94A90B0C94840B0C9400050C940005C3
:100070000C9400050C94EA0B0C9400050C940005FC
:100080000C94530B0C9400050C9400050C94000583
:100090000C9400050C9400050C9400050C940005CC
:1000A0000C9400050C9400050C940005CC0CCF0CAE
:1000B000BE0CC20CC60CF00CF00CF00CD30CD70C20
:1000C000DB0CE10CE50CF00CEB0C00000000240054
:1000D00027002A002D003000080B00020202010058
:1000E000090400000102020000052400100105249B
:1000F000010101042402060524060001070581030D
:1001000010004009040100020A0000000705020275
:1001100040000007058302400000040309041201A7
:100120000002EF020140401C3805000101020301FA
:1001300054696C6C204861726261756D006674442C
:1001400075696E6F00000006000C00130019002096
:100150000026002D0034003A00410048004E0055B2
:10016000005C0063006A00700077007E0085008CF0
:100170000093009A00A100A800AF00B700BE00C520
:1001800000CC00D400DB00E200EA00F100F800003F
:100190000107010F0117011E0126012E0135013D46
:1001A0000145014D0154015C0164016C0174017C45
:1001B0000184018C0194019D01A501AD01B501BE31
:1001C00001C601CF01D701DF01E801F101F9010208
:1001D000020A0213021C0225022E0236023F0248C6
:1001E0000251025A0264026D0276027F0288029274
:1001F000029B02A502AE02B802C102CB02D402DE0B
:1002000002E802F202FB0205030F03190323032E87
:1002100003380342034C03560361036B03760380E8
:10022000038B039503A003AB03B603C103CB03D633
:1002300003E103ED03F80303040E041A042504305C
:10024000043C04480453045F046B04760482048E67
:10025000049A04A604B304BF04CB04D804E404F154
:1002600004FD040A051705230530053D054A055719
:1002700005640572057F058C059A05A805B505C3BB
:1002800005D105DF05ED05FB050906170625063432
:10029000064206510660066E067D068C069B06AA7F
:1002A00006BA06C906D806E806F70607071707279D
:1002B000073707470757076707780788079907AA87
:1002C00007BB07CC07DD07EE07FF0711082208343C
:1002D00008460858086A087C088E08A108B308C6B2
:1002E00008D908EB08FE081209250938094C0960ED
:1002F00009740988099C09B009C509D909EE0903DF
:100300000A180A2D0A420A580A6E0A840A9A0AB082
:100310000AC60ADD0AF30A0A0B210B380B500B67D9
:100320000B7F0B970BAF0BC80BE00BF90B120C2BD1
:100330000C440C5E0C770C910CAB0CC60CE00CFB67
:100340000C160D320D4D0D690D850DA10DBD0DDA8B
:100350000DF70D140E310E4F0E6D0E8B0EAA0EC83A
:100360000EE70E070F260F460F660F870FA70FC960
:100370000FEA0F0C102D10501072109510B910DCF0
:10038000100011241149116E119311B911DF1106DA
:10039000122D1254127C12A412CC12F5121E134804
:1003A0001372139D13C813F3131F144C147914A65E
:1003B00014D4140215311561159115C115F21524C7
:1003C0001656168916BC16F016241759178F17C51E
:1003D00017FC1734186C18A518DF181A195519913D
:1003E00019CD190B1A491A881AC71A081B491B8CF0
:1003F0001BCF1B131C581C9E1CE41C2C1D751DBF01
:100400001D091E551EA21EF01E3F1F8F1FE11F3328
:10041000208720DC2032218A21E3213D229922F607
:10042000225423B42316247924DD244425AC251535
:10043000268126EE265D27CE274128B6282D29A61F
:1004400029212A9E2A1E2BA02B252CAC2C352DC110
:100450002D502EE12E762F0D30A7304531E5318914
:10046000323133DC338A343C35F235AC366B372DE0
:1004700038F438BF39903A653B3F3C1E3D033EEDB2
:100480003EDD3FD440D041D342DD43EE4407462712
:10049000474F487F49B84AFA4B454D9A4EFA4F6448
:1004A00051DA525B54E95584572C59E35AA95C7FC1
:1004B0005E65605D6268648666B968026B626DDB6A
:1004C0006F6E721D75E977D67AE47D16817084F2BD
:1004D00087A28B818F9493DF97679C31A142A6A15D
:1004E000AB56B168B7E1BDCBC432CC24D4B2DCEC9E
:1004F000E5EAEFC3FAFFFFFFFFFFFFFFFFFFFFFF8C
:10050000FFFFFFFFFFFFFFFFFFFFFFFFFFFFFFFFFB
:10051000FFFFFFFFFFFFFFFFFFFFFFFFFFFFFFFFEB
:10052000FFFFFFFFFFFFFFFFFFFFFFFFFFFFFFFFDB
:10053000FFFFFFFFFFFFFFFFFFFFFFFFFFFFFFFFCB
:10094000FFFFFF00000000250028002B002E0031D3
:100950000004040404040304050202020204030266
:100960000202020606060606060404020202040447
:10097000040802011040804010204080408008029E
:10098000040180402010020110801020404020000F
:1009900000000200090F0000030401000C00000029
:1009A0000000000000000000000000000000A5158D
:1009B00011241FBECFEFDAE0DEBFCDBF23E0A6E9F2
:1009C000B2E001C01D92A13EB207E1F712E0A0E043
:1009D000B1E0EEEEF1E302C005900D92A639B10749
:1009E000D9F714E0C8EDD4E004C02197FE010E94BD
:1009F000B816C73DD107C9F70E94800F0C94F518AF
:100A00000C9400004091C6025091C7022091C4028C
:100A10003091C50242175307B4F49091E8009570E5
:100A2000E1F39091E80092FD19C08093F10080916C
:100A3000C6029091C70201968F739927892B19F4EA
:100A40008EEF8093E8008091C6029091C7020196D4
:100A50009093C7028093C60281E0089580E00895D4
:100A6000CF92DF92EF92FF920F931F93CF93DF937A
:100A70001F92CDB7DEB7182F062FE42E862F880FD2
:100A80008E5F99830E94020583E00E940205F12E89
:100A9000C12E9981D92E8C2D8F19801798F4F601CB
:100AA000E7FE02C0849101C080810E940205182FD8
:100AB00080E00E9402058123FFEFCF1ADF0A811137
:100AC000EACF01C081E00F90DF91CF911F910F918C
:100AD000FF90EF90DF90CF900895DF92EF92FF921A
:100AE0000F931F93CF93DF93D82E8A017B01E40EDF
:100AF000F51EEB01CE15DF0571F0D7FE03C0FE0138
:100B0000849101C088810E94020521968111F2CF53
:100B10008FEF9FEF01C0C801DF91CF911F910F911F
:100B2000FF90EF90DF900895CF92DF92EF92FF92C7
:100B30000F931F93CF93DF936C017A018B01C0E079
:100B4000D0E0CE15DF0589F0D8016D918D01D60179
:100B5000ED91FC910190F081E02DC6010995892B62
:100B600011F47E0102C02196ECCFC701DF91CF9135
:100B70001F910F91FF90EF90DF90CF900895CF934A
:100B8000DF931F92CDB7DEB76983DC01ED91FC9155
:100B90000280F381E02D41E050E0BE016F5F7F4FA6
:100BA00009950F90DF91CF910895FC01848595857B
:100BB00097FD0BC09FB7F89482E08093E900809185
:100BC000F2009FBF90E0019608959FB7F89482E0ED
:100BD0008093E9008091F2009FBF90E0089508950E
:100BE00080E090E008950E94B5180C94040D0F93D6
:100BF0001F93CF93DF931F92CDB7DEB782E0898337
:100C000042E450E068ED70E080E80E946D050E94CB
:100C10006C0FDC0112960D911C91139701151105B3
:100C200069F0D801ED91FC910280F381E02DBE01C5
:100C30006F5F7F4FC801099597FF07C089810F90AB
:100C4000DF91CF911F910F910895F80100851185D3
:100C5000E5CF0E945B0F90E00895CF93DF931F9242
:100C6000CDB7DEB7FC018485958597FD05C02FEFD4
:100C70003FEF358724870BC0CE0101960E94200FDD
:100C8000019719F4898190E002C08FEF9FEF0F90D8
:100C9000DF91CF9108950F931F93CF93DF931F920E
:100CA000CDB7DEB78C01FC018485958597FF0EC01A
:100CB000CE0101960E94200F019719F4298130E09E
:100CC00002C02FEF3FEFF80135872487F8018485B4
:100CD00095850F90DF91CF911F910F910895CF933C
:100CE000DF93FC01C081D181209751F08881882356
:100CF00039F0082E000C990B0E94BA188993F6CF90
:100D0000DF91CF910895FC0124813581232B31F4AB
:100D100021E061157105A1F0FB0108C0FC01808193
:100D200091816115710531F421E0FC0180818823F6
:100D300039F005C00E94D61821E0892B09F020E087
:100D4000822F0895EF92FF920F931F93CF93DF931B
:100D5000EC01198218821B821A821D821C82611585
:100D60007105A9F17B01FB0101900020E9F73197A2
:100D70008F01061B170BB8016F5F7F4F80E090E07B
:100D80000E94EB17009759F0998388831B830A838D
:100D90002C813D81232B81F4FC0110820DC08881C0
:100DA0009981009711F00E945317198218821D82B1
:100DB0001C821B821A820BC01D830C83B701DF913A
:100DC000CF911F910F91FF90EF900C94DF18DF915E
:100DD000CF911F910F91FF90EF9008951F920F9266
:100DE0000FB60F9211242F933F934F935F936F93FE
:100DF0007F938F939F93AF93BF93CF93EF93FF9383
:100E0000C091E1008091E100837F8093E100C3FF06
:100E10000FC01092E90081E08093EB001092EC008B
:100E200082E38093ED001092CA0288E08093F00084
:100E3000C2FF14C00E94040D8091C802882329F0CB
:100E40008091C80281508093C8028091C902882392
:100E500029F08091C90281508093C902C4FF10C05B
:100E60008091E2008E7E81608093E2008091E100BB
:100E70008F7E8093E100809197028E7E806111C009
:100E8000C0FF11C08091E2008E7E80618093E200FD
:100E90008091E1008E7E8093E100809197028E7EAA
:100EA000816080939702FF91EF91CF91BF91AF91B5
:100EB0009F918F917F916F915F914F913F912F9172
:100EC0000F900FBE0F901F9018951F920F920FB6A4
:100ED0000F921124CF92DF92EF92FF920F931F9304
:100EE0002F933F934F935F936F937F938F939F9332
:100EF000AF93BF93EF93FF93CF93DF93CDB7DEB75D
:100F00006C97DEBFCDBF1092E9008091E80083FFAF
:100F1000FFC1FE017596DE2ECF2E88E08E0F8E1754
:100F200029F09091F10090833196F9CF84E6809377
:100F3000C90282EF8093E8008D8987FF05C09091F8
:100F4000E80090FFFCCF03C09EEF9093E800982F3D
:100F5000907609F0C5C09E892F89188D91110CC01B
:100F6000803829F4809198028093F10002C0109299
:100F7000F1001092F1004FC1422F50E0512B9130FF
:100F800051F4811148C14130510509F044C18091AB
:100F900098028D7F0BC0933061F481113CC14130C8
:100FA000510509F038C180919802826080939802BF
:100FB00032C1953041F48091E80080FFFCCF206879
:100FC0002093E30028C1963009F05EC0EB8CFC8CC6
:100FD0001092E9001092C7021092C602123091F5E9
:100FE0001092C5021092C4020E94F70599E0BE015A
:100FF0006F5F7F4FDB01E92F1D92EA95E9F7998337
:101000001A8391E09E8390EA98879AEF99872091BE
:10101000C6023091C702275F3F4F3C832B838D83ED
:101020001092E9001092C7021092C602F092C50217
:10103000E092C40249E050E080E00E946D050E9409
:10104000F705E9C0F092C502E092C4020E946C0F5D
:10105000DC011296ED90FC901397E114F10409F471
:10106000C7C0D701ED91FC910480F581E02D6D2D75
:101070007C2DC7010995009719F00CF0CCC0CFC0AA
:10108000F701E084F184E9CF973009F4C8C09830C3
:1010900021F481E08093F100BEC0993009F0BBC01B
:1010A000837009F0BCC0EAE4F1E081E021E036E3BE
:1010B0009081992361F08093E9002093EB00919156
:1010C0009093EC003093ED008F5F873089F78EE7C7
:1010D0008093EA001092EA008F898093CA029BC035
:1010E0008B8D9C8D1092E9001092C7021092C6025F
:1010F0009093C5028093C402898D81115FC08E894F
:101100009D89913A59F4813209F089C047E050E055
:1011100060E071E080E00E946D057DC0913209F0D1
:101120007EC0833289F4888D90E0982F88272F899C
:10113000822BA0E0B0E08093090190930A01A09374
:101140000B01B0930C0167C08032B1F48091E800CC
:1011500082FFFCCFE0E0F1E087E08E0F8E1729F0F0
:101160009091F10090833196F9CF84E68093C90283
:101170008BEF8093E80006C0823209F04CC08F8963
:101180008093070180919602882319F0EEEFFAE030
:1011900002C0E0E0F8E08091000190910101A0918F
:1011A0000201B0910301803B9440A105B10509F013
:1011B0007AC08091070180FF92C075C00E946C0FB9
:1011C000DC0112960D911C9113970115110539F14F
:1011D000D801ED91FC910190F081E02D6D2D7C2DD9
:1011E000C8010995811117C0F80100851185EDCF5F
:1011F000113009F44EC0133091F48F89882309F41B
:1012000045C0823081F440E867E08DE391E00E94C0
:101210003005882321F08EEF8093E80079C081E2C9
:101220008093EB0075C0813029F440E86CE080E3E6
:1012300091E0EDCF833099F70E946C0FDC0112969C
:10124000ED90FC9013978E010F5F1F4F6801E11422
:10125000F10479F0D701ED91FC910680F781E02D42
:10126000B801C7010995080F111DF701E084F18449
:10127000EECFD8011C92F60101900020E9F73197DA
:10128000BF016C197D0940E0C601C1CF6AE171E080
:1012900002C06EE171E06115710509F2FB01449134
:1012A00050E080E838CF0FB6F894A89580916000A0
:1012B000886180936000109260000FBEA895EE3F99
:1012C0002AE0F20739F08091FE0A9091FF0A91839B
:1012D0008083A1CF1092FF0A1092FE0A9CCFEE3FAE
:1012E0008AE0F80731F0808191819093FF0A809322
:1012F000FE0A87E797E7918380839BE088E10FB63A
:10130000F894A895809360000FBE9093600083CFFF
:101310006C960FB6F894DEBF0FBECDBFDF91CF91B4
:10132000FF91EF91BF91AF919F918F917F916F91BD
:101330005F914F913F912F911F910F91FF90EF90EF
:10134000DF90CF900F900FBE0F901F9018953FB772
:10135000F8948091C0029091C102A091C202B09114
:10136000C30226B5A89B05C02F3F19F00196A11D09
:10137000B11D3FBFBA2FA92F982F8827820F911D2B
:10138000A11DB11DBC01CD0142E0660F771F881F72
:10139000991F4A95D1F708958F929F92AF92BF926D
:1013A000CF92DF92EF92FF926B017C010E94A7091E
:1013B0004B015C01C114D104E104F104F1F00E947D
:1013C000A709DC01CB0188199909AA09BB09883E44
:1013D0009340A105B10570F321E0C21AD108E108DC
:1013E000F10888EE880E83E0981EA11CB11CC11480
:1013F000D104E104F10419F7DDCFFF90EF90DF9005
:10140000CF90BF90AF909F908F9008958F929F92B2
:10141000AF92BF92CF92DF92EF92FF920F931F9302
:10142000CF93DF935C016B017A01809107018823E0
:1014300009F459C08091CA02882309F454C08091EC
:10144000970280FF05C08091E00082608093E000F9
:10145000E70110E00AEF83E0882E9AE3992E2097A7
:10146000D1F10E945B0F811109C00150E1F161E0EF
:1014700070E080E090E00E94CC09F1CF282F30E0AE
:10148000C217D3070CF48C2F4FB7F8948092E90061
:101490009091E80095FF1DC0282F30E0C21BD30BB0
:1014A000F601982F915020F081918093F100FACFAE
:1014B000C20ED31E112319F09092E80009C080914A
:1014C000E80085FD06C09092E80011E0209709F041
:1014D00010E04FBFC4CF1111C4CF84E68093C8027F
:1014E0001E141F0444F081E090E0F5019383828391
:1014F00080E090E001C0C701DF91CF911F910F9173
:10150000FF90EF90DF90CF90BF90AF909F908F9023
:1015100008951F920F920FB60F9211242F933F93AD
:101520008F939F93AF93BF938091BC029091BD0224
:10153000A091BE02B091BF023091BB0223E0230F05
:101540002D3720F40196A11DB11D05C026E8230FFB
:101550000296A11DB11D2093BB028093BC02909303
:10156000BD02A093BE02B093BF028091C0029091D1
:10157000C102A091C202B091C3020196A11DB11D8A
:101580008093C0029093C102A093C202B093C302A1
:10159000BF91AF919F918F913F912F910F900FBE6F
:1015A0000F901F9018951F920F920FB60F92112453
:1015B0002F933F934F935F936F937F938F939F935B
:1015C000AF93BF93CF93DF93EF93FF93D3B1C091CA
:1015D0000801CD27C5FF03C082E00E94490FC6FF66
:1015E00003C083E00E94490FD0930801FF91EF915F
:1015F000DF91CF91BF91AF919F918F917F916F912B
:101600005F914F913F912F910F900FBE0F901F90C0
:1016100018951F920F920FB60F9211242F933F939C
:101620004F935F936F937F938F939F93AF93BF93EA
:10163000EF93FF9381E00E94490FFF91EF91BF91DB
:10164000AF919F918F917F916F915F914F913F915A
:101650002F910F900FBE0F901F9018951F920F9211
:101660000FB60F9211242F933F934F935F936F9375
:101670007F938F939F93AF93BF93EF93FF9380E0FC
:101680000E94490FFF91EF91BF91AF919F918F9170
:101690007F916F915F914F913F912F910F900FBE6E
:1016A0000F901F9018951F920F920FB60F92112452
:1016B0008F939F938091B3038823B1F08091B203FD
:1016C00091E0980F9093B203843029F48FEF8093C8
:1016D000B5038093B4031092B3038091C9008F7E49
:1016E0008093C900729A09C081E08093B303729815
:1016F0008091C90080618093C9009F918F910F9064
:101700000FBE0F901F9018951F920F920FB60F9259
:1017100011248F938091B303813049F48091CE00DE
:101720008F778093B40382E08093B3030CC0823040
:1017300051F48091CE008F778093B50383E080933E
:10174000B3031092B2038F910F900FBE0F901F90B2
:1017500018951F920F920FB60F9211242F933F935B
:101760004F935F938F939F93EF93FF9380912F03FA
:10177000982F937081F4289A2898E82FE695E6959B
:10178000F0E0EE0FFF1FE55EFC4F45895689509350
:10179000B1034093B00380FF0CC081FB222720F9E6
:1017A00030E0255E3C4FF901EB56FF4F90819EBD26
:1017B00001C01EBC8F5F80932F03FF91EF919F911B
:1017C0008F915F914F913F912F910F900FBE0F908E
:1017D0001F9018951F920F920FB60F9211242F93FE
:1017E0003F934F935F936F937F938F939F93AF93A9
:1017F000BF93EF93FF9380911B0380FF1AC0482F84
:1018000050E0559547952091780030917900FA0184
:10181000EE0FFF1FE55EFC4F3283218321E030E0B5
:1018200001C0220F4A95EAF790912E03292B2093AD
:101830002E038F5F982F9F7090931B0380FD03C032
:101840000E94790C05C080917A00806480937A00B0
:10185000FF91EF91BF91AF919F918F917F916F9188
:101860005F914F913F912F910F900FBE0F901F905E
:10187000189583FF02C0469A0895469880FF02C0DB
:10188000889A01C0889881FF02C0899A01C089980E
:1018900082FF02C05D9A08955D980895EF92FF92CD
:1018A0000F931F93CF93DF931F92CDB7DEB70DE059
:1018B00011E0E12CF12CF80161918F01C7016983DE
:1018C0000E941B166981681719F0C7010E94231630
:1018D000FFEFEF1AFF0A86E1E816F10461F78DE0E9
:1018E00091E00F90DF91CF911F910F91FF90EF90BA
:1018F000089580911B0390E09595879520912C0386
:1019000030E0082E02C0359527950A94E2F720FFB3
:101910008FEF0E94390C20911B03822F90E0959548
:101920008795837023FD06C0846480937C001092A9
:101930007B0006C0806480937C0080E280937B0003
:1019400080917A00806480937A000895ECE9F9E050
:101950004491EDE7F9E02491EEE5F9E094919923C3
:1019600009F451C04423E1F150E0FA013197EF301E
:10197000F105B0F5EA5AFF4F0C94B816309180008B
:101980003F7707C0309180003F7D03C030918000D9
:10199000377F3093800024C034B53F7702C034B520
:1019A0003F7D34BD1DC0309190003F7707C030911E
:1019B00090003F7D03C030919000377F30939000BE
:1019C0000FC03091C0003F7703C03091C0003F7D11
:1019D0003093C00005C03091C200377F3093C20001
:1019E000E92FF0E0EE0FFF1FED5BF64FA591B491EC
:1019F0009FB7F894EC91811103C020952E2301C06C
:101A00002E2B2C939FBF089583E08093E900809153
:101A1000F200882319F08AE38093E8000895BC015E
:101A2000009791F0FC0101900020E9F73197AF0198
:101A3000481B590BE091CB02F091CC020280F3815C
:101A4000E02D8BEC92E0099480E090E008958F9275
:101A50009F92AF92BF920F931F93CF93DF93CDB717
:101A6000DEB7A1970FB6F894DEBF0FBECDBF19A2A7
:101A7000423008F44AE08E010F5D1F4F842E912CF6
:101A8000A12CB12CA50194010E947716E62FB90173
:101A9000CA0101501109EA3014F4E05D01C0E95CAB
:101AA000D801EC93232B242B252B61F7C8010E942E
:101AB0000F0DA1960FB6F894DEBF0FBECDBFDF911C
:101AC000CF911F910F91BF90AF909F908F900895ED
:101AD000CF92DF92EF92FF92CF93DF936C01990F39
:101AE000EE08FF08F7FE1AC0E091CB02F091CC029D
:101AF0000190F081E02D6DE28BEC92E00995EC0114
:101B000066277727CB016C197D098E099F094AE06A
:101B10000E94270D7C01EC0EFD1E06C04AE0C701A5
:101B2000B6010E94270D7C0184E991E00E940F0D0F
:101B30008E0D9F1DDF91CF91FF90EF90DF90CF90A2
:101B40000895811103C099B194700BC0813019F4CC
:101B500099B1987006C093B1823011F4907201C0AF
:101B6000907481E0911101C080E00895CF92DF92DE
:101B7000EF92FF920F931F93282F237030E0F9010B
:101B8000613051F4EC5AFE4FC080D12CE12CF12C85
:101B9000F901E05BFE4F0BC0E05BFE4F623061F489
:101BA000C080D12CE12CF12CF901EC5AFE4F0081C0
:101BB00010E020E030E00CC0D901AC5ABE4F0081EB
:101BC0009C91092B10E020E030E0C12CD12C760153
:101BD00082FD08C0FE2CED2CDC2CCC24322F212FD2
:101BE000102F0027EBE1F3E050E0B8016C297D29CC
:101BF000609570950095109585899689541728F4FD
:101C00008C299D298023912302C086239723968BBC
:101C1000858B5F5F3296503479F71F910F91FF905B
:101C2000EF90DF90CF900895CF93DF93D42FC82FFC
:101C3000CC0F613079F030F0623099F06330E9F424
:101C400062E010C040E060E08C2F0E94B60D40E0E2
:101C500060E00DC062E08C2F0E94B60D4D2F61E058
:101C600006C061E08C2F0E94B60D4D2F62E081E02E
:101C70008C0FDF91CF910C94B60DDF91CF91089529
:101C80008F929F92AF92BF92CF92DF92EF92FF928C
:101C90000F931F93CF93C82F082F10E08091C70395
:101CA00090E00C2E02C0959587950A94E2F780FF8C
:101CB0003CC08C2F0E94A10D8823B9F18091C603EE
:101CC00090E00C2E02C0959587950A94E2F780FD6E
:101CD0002CC0F801EE0FFF1FE853FC4F808191816B
:101CE000019619F580E190E00C2E02C0880F991F33
:101CF0000A94E2F72091C70330E082239323892BD3
:101D000011F460E001C063E040E48C2F0E94140EE7
:101D100081E090E00C2E01C0880F0A94EAF78095CC
:101D20009091C70389238093C7037801EE0CFF1CB1
:101D3000EE0CFF1CC7018A549C4F6C01FC01808192
:101D40009181A281B381892B8A2B8B2B09F45EC0F0
:101D50000E94A709F60180809180A280B380DC01F7
:101D6000CB0188199909AA09BB09893E9340A105AD
:101D7000B10508F44BC08C2F0E94A10D9091C603B1
:101D8000292F30E00C2E02C0359527950A94E2F7F2
:101D900020FF0BC081113AC021E030E001C0220FCA
:101DA000CA95EAF72095292309C0882379F121E013
:101DB00030E001C0220FCA95EAF7292B2093C60311
:101DC0002091D00330E0A801440F551F02C0359583
:101DD00027954A95E2F72370233039F0811103C02B
:101DE000223069F402C0213051F4000F111FF801B4
:101DF000E853FC4F80819181019691838083F701A4
:101E0000EA54FC4F1082118212821382CF911F91EB
:101E10000F91FF90EF90DF90CF90BF90AF909F9089
:101E20008F900895CF93DF930E940F0DEC0184E90A
:101E300091E00E940F0D8C0F9D1FDF91CF910895AF
:101E4000FC018091CA02811103C08FEF9FEF0895BA
:101E50009FB7F89482E08093E9002091F20030E08F
:101E60001216130614F421E030E02115310551F06B
:101E700084E68093C9028091F10080838091F20012
:101E8000882319F09FBFC90108958BE68093E8006D
:101E9000F9CFCF93C82F0E94400E0E94A70924E0DB
:101EA000C29FF0011124EA54FC4F60837183828346
:101EB0009383CF9108952FB7F89483E08093E9003E
:101EC0009091E800892F807295FF04C09091F200F4
:101ED00080E4891B2FBF08958091D50381110DC027
:101EE00082E08093D10384E08093D2031092D403E4
:101EF0001092D30381E08093D50381ED93E00895A0
:101F0000CF93DF93CDB7DEB72D970FB6F894DEBF32
:101F10000FBECDBF789484B5826084BD84B58160E6
:101F200084BD85B5826085BD85B5816085BD8091A4
:101F30006E00816080936E0010928100809181001C
:101F40008260809381008091810081608093810014
:101F500080918000816080938000809191008260F8
:101F60008093910080919100816080939100809195
:101F700090008160809390008091C1008460809384
:101F8000C1008091C10082608093C1008091C10036
:101F900081608093C1008091C30081608093C30001
:101FA0008091C00082608093C0008091C2008160F7
:101FB0008093C20080917A00846080937A0080913F
:101FC0007A00826080937A0080917A0081608093A9
:101FD0007A0080917A00806880937A001092CA0219
:101FE00010929802109297028091D700816080939E
:101FF000D70080EA8093D80089B5806189BD89B512
:10200000826089BD09B400FEFDCF61E070E080E030
:1020100090E00E94CC098091D8008F7C80618093F1
:10202000D8008091E000807F8093E0008091E10003
:102030008E7E8093E1008DE08093E200EEEFFFE77B
:10204000859194918B3F9C4D19F481E08093960289
:10205000EDE7F9E02491EEE5F9E08491882399F029
:1020600090E0880F991FFC01E653FF4FA591B491B2
:10207000FC01ED5BF64F859194918FB7F894EC914C
:10208000E22BEC938FBF8FEF9FEF9093D80280935A
:10209000D702109107016AE070E080E090E00E94B2
:1020A000CC09111113C081E00E94A60C62E370E01C
:1020B00080E090E00E94CC0980E00E94A60C62ECD7
:1020C00071E080E090E00E94CC09E3CF3DE0E32E98
:1020D00031E0F32E00E010E0C8010E941B16D7018A
:1020E0008D937D010F5F1F4F06311105A9F7809178
:1020F0000D0190910E01A0910F01B09110018F3E42
:102100009E4BAD4ABE4DB9F08FEE9EEBADEABEEDF3
:1021100080930D0190930E01A0930F01B0931001D5
:102120008AE28093110169E271E082E191E00E940C
:10213000DF180E944E0C3E9A469A809A8898819A9F
:102140008998559A5D9880EF80937E008FE0809308
:102150007D0084E480937C008FE880937A00109265
:102160007B0010921B0310922E030E94790C6A9A36
:10217000729887E090E09093CD008093CC0080E847
:102180008093C90086E08093CA0084B1876084B9D7
:10219000289A86ED8CBD8DB58E7F8DBD6E9A769A10
:1021A000279A2F98E0E3F3E01192119223E0E03BAD
:1021B000F207D1F710922F031EBC8AB1837F8AB930
:1021C0008BB1837F8BB984B18F7984B985B18F79D5
:1021D00085B980EF8093C7031092D00380E5809388
:1021E00069008CE08DBB81E08093680080E680937D
:1021F0006B0088E18093810083E0809380001092DF
:1022000085001092840085E09FEF90938900809371
:1022100088008FEF9FEF90938B0080938A0084E07B
:1022200086BB80936F0080918100836080938100E2
:102230008FEF8093C6031092C9031092C8031092C7
:10224000CB031092CA031092CD031092CC031092CC
:10225000CF031092CE0322242A9423E0322E412C65
:10226000512CAA24A394B12C8BEC92E00E94D505AA
:10227000892B39F480E090E0892BB1F30E940000B3
:10228000F0CF8BEC92E00E942D068A3011F08D3059
:1022900081F5E091BA021E163CF70E2E000CFF0BE2
:1022A000E756FD4F108260E270E089E992E00E94FB
:1022B000CB18009731F08C010F5F1F4FDC011C928F
:1022C00002C000E010E069E972E0CE0107960E94CA
:1022D000A206CE0107960E946F066AE671E0CE0163
:1022E00007960E9483068823A1F00115110599F530
:1022F00010C0E091BA02E0320CF0B6CF91E09E0F30
:102300009093BA020E2E000CFF0BE756FD4F808310
:10231000ABCF61EA71E0CE0107960E948306882365
:1023200019F082E791E07FC068E771E0CE0107967F
:102330000E9483068823E9F001151105D1F041E1DF
:1023400050E0B80182E191E00E94E618109222016B
:102350000E944E0C66C0C8010E94F515892B11F42D
:1023600080E001C081E00E94A60CEE24E394F12CF1
:102370002BC06CEB71E0CE0107960E9483068111A1
:1023800050C067E871E0CE0107960E94830688235B
:1023900009F44CC00115110509F448C0C8010E9498
:1023A000F515809311010E944E0C6091110170E0AF
:1023B00080E090E04AE00E94270D84E991E00E94CD
:1023C0000F0DB2E0EB2EF12CB801CE0101960E9468
:1023D000A206CE0101960E946F06CD80DE80BFEF7F
:1023E000CB16DB0691F00115110579F0C114D1046B
:1023F00011F4F80109C069817A81A601C8010E941F
:10240000E618F801EC0DFD1D108267E971E0CE01C0
:1024100007960E9483068823A9F00115110501F58E
:1024200011C082E191E00E94120FCBCF6BEC71E002
:10243000CE0107960E9483068111B7CFEE24EA945D
:10244000FE2CC2CF68ED71E0CE0107960E94830694
:10245000882309F4C2C00115110509F042C0BDC0AE
:1024600060E270E0C8010E94CB186C01892B09F46E
:10247000C8C0D6011D92CD0160E270E00E94CB1869
:10248000009709F4BEC0FC011192CF010E94F5151E
:1024900097FD0BC08115F2E09F0754F4AC01A3E057
:1024A00055954795AA95E1F705C040E050E002C078
:1024B00040EC5FEFD8018C918D3609F0A2C01196E7
:1024C0008C918153F60191819C3621F0923721F451
:1024D00062E003C061E001C063E0843008F091C0B5
:1024E00079C060E270E0C8010E94CB186C01892BB2
:1024F00009F487C0D6011D92CD0160E270E00E9410
:10250000CB18009709F47DC03C01BFEF6B1A7B0A22
:10251000FC01108260E270E0C3010E94CB184C0104
:10252000009709F46EC0DC011C92C3010E94F515EE
:1025300097FD7BC08115B2E09B070CF079C03C0190
:10254000F3E075946794FA95E1F7F80180818D3690
:1025500009F057C011811153D60111968C918C3618
:1025600009F06BC061E0143008F04BC0C401019663
:102570006D870E94F515212F30E0220F331F43E0B5
:1025800050E0022E01C0440F0A94EAF740955091A2
:10259000D003742F7523A501022E01C0440F0A94A5
:1025A000EAF7472B4093D003F901E853FC4F91958C
:1025B0008195910991838083C501012E01C0880F07
:1025C0000A94EAF79091C703892B8093C703462D9D
:1025D0006D85812F0E94140EB4C266EE71E0CE01AB
:1025E00007960E948306882371F10115110559F1A0
:1025F000D8018C918D3629F4F801218121532430A2
:1026000078F182E0E816F10419F0C7010E94680D24
:102610000E94040D1092BA0289819A810E94531778
:102620008F8198850E9453171FCE612C712C8DCFFE
:10263000E0EC6E2E77247A9488CF823711F462E032
:1026400092CF63E090CF6BEF71E0CE0107960E94CE
:102650008306882309F450C00115110589F44CC084
:102660008091C70390E002C0959587952A95E2F77F
:1026700080FF03C081E090E0C9CF80E090E0C6CF4A
:1026800060E270E0C8010E94CB186C01892B09F44C
:10269000B8CFD6011D92CD0160E270E00E94CB1848
:1026A000FC011082D8018C918D3609F0AACF1196C9
:1026B0008C918153F6019181963679F0943709F027
:1026C000A0CF20E130E002C0220F331F8A95E2F74D
:1026D000C9019091C703892B0CC040E150E002C0B2
:1026E000440F551F8A95E2F7CA0180959091C70360
:1026F00089238093C70325C263E172E0CE01079668
:102700000E948306882319F00115110571F46EE10A
:1027100072E0CE0107960E948306882309F448C020
:102720000115110509F052C043C060E270E0C80114
:102730000E94CB186C01892B09F463CFD6011D923E
:10274000CD0160E270E00E94CB18009709F459CFE8
:10275000FC011192CF010E94F51597FD0BC0811568
:10276000F2E09F0754F4AC0163E0559547956A95F4
:10277000E1F705C040E050E002C040EC5FEFD80157
:102780008C918F3609F03DCF11968C918153F601D3
:102790009181913321F0923321F462E003C061E032
:1027A00001C060E0883008F02CCF0E94B60DC9C18E
:1027B0006DE272E0CE0107960E948306882309F439
:1027C0005FC00115110509F069C05AC060E270E0F0
:1027D000C8010E94CB18FC01892B09F412CFD80143
:1027E00011969C9111971082E181E257E53008F033
:1027F00008CF8FEC890FF0E0EC5BFE4F3081883022
:1028000008F0FFCE333609F4FCCE9C91993609F0DE
:10281000F8CEF50102C0EE0FFF1F8A95E2F7CF0157
:1028200020912C03311105C040912D034E2399F0C6
:1028300006C0323041F440912D034E2361F4422F03
:10284000482349F07EC1422F4E2309F47AC14E2F0E
:102850004095242301C0282B20932C0320912D0385
:10286000482F4095323010F4822B02C0842F8223EF
:1028700080932D0380912E03842380932E0361C1C6
:1028800067E372E0CE0107960E948306882309F46D
:102890005CC00115110509F089C057C0F80181819C
:1028A0008153883008F0ADCED8019C91993609F05B
:1028B000A8CEE82FF0E020912C0330E0082E02C0D3
:1028C000359527950A94E2F720FD07C0950102C0CF
:1028D000220F331F8A95E2F719C020912D0330E0B3
:1028E000082E02C0359527950A94E2F720FF03C011
:1028F0000E94CB1528C00E94CB1551E040E0843FD8
:10290000914008F050E0852F942F1DC080912E0338
:1029100090E082239323892B39F48FE891E001978B
:10292000F1F700C00000F2CFEE0FFF1FE55EFC4F95
:1029300021813281A0E1B7E20E946816A2019101D3
:102940000E949916C901BC0127C068E472E0CE015B
:1029500007960E948306882309F462C001151105B9
:1029600009F45EC0D8011196EC919FEC9E0F943053
:1029700008F047CED8018C91833609F042CE892FDA
:102980009D870E94400E9D85E92FF0E0EE0FFF1F0E
:10299000E853FC4F6081718180E090E04AE00E9442
:1029A000270D84E991E00E940F0D32CE60E270E0C5
:1029B000C8010E94CB18009709F423CED8011196C4
:1029C0002C912153DC011196EC91E156E23108F093
:1029D00018CEF0E0EE5CFE4F8081283008F011CE7A
:1029E000833609F40ECEF8019081933609F009CEB2
:1029F00030E0220F331F022E01C0880F0A94EAF73D
:102A000043E050E002C0440F551F2A95E2F7942F8F
:102A100090952091D0039223892B8093D00391C06D
:102A200064E572E0CE0107960E948306882319F0C0
:102A30000115110561F462E672E0CE0107960E946D
:102A400083068823C1F00115110509F514C0D801CA
:102A50001196EC91E153E43008F0D3CDD8018C917C
:102A6000833609F0CECDF0E0EE0FFF1FE853FC4FA8
:102A70001182108266C064E772E0CE0107960E9460
:102A800083068823A9F00115110559F511C0F80135
:102A900081818153843008F0B4CDF8019081933660
:102AA00009F0AFCD0E94A10DF1E08F2790E0AECDEF
:102AB00066E872E0CE0107960E948306882309F437
:102AC000A0CD2091B4032F3F49F08091B50390E051
:102AD00050E8259F800D911D112498CD8FEF9FEF19
:102AE00095CDD8018C91863661F4809171008D7FEF
:102AF0008093710072988091C9008F7E8093C90085
:102B000020C0843709F07DCD21E02093B3031092DB
:102B1000B2033FEF3093B5033093B4038091D003F9
:102B20008C7F8093D003109290008BE08093910073
:102B300041E15AE7509399004093980082E08093D6
:102B40007100EE24E394F12C60CDEBECF2E0138203
:102B5000128288EE93E0A0E0B0E084839583A683A0
:102B6000B7838CE591E0918380838FEF9FEF95870A
:102B70008487EBE1F3E0818B128A138A148A8093B5
:102B8000B4038093B50380E1E6EBF3E0DF011D922F
:102B90008A95E9F708958830F8F4E82FF0E021E00D
:102BA00030E002C0220F331F8A95E2F780912E0396
:102BB00090E082239323892B39F48FE891E00197E9
:102BC000F1F700C00000F2CFEE0FFF1FE55EFC4FF3
:102BD0000180F281E02D02C0E0E0F0E0EE0FFF1F87
:102BE000EB5BFE4F859194910895FC01882799270E
:102BF000E89421912032E9F3293010F02E30C8F307
:102C00002B3241F02D3239F4689404C00E9413161F
:102C1000820F911D219120532A30C0F31EF490950C
:102C200081959F4F08957AE0979F902D879F802DE3
:102C3000910D11240895F999FECF92BD81BDF89AA6
:102C4000992780B50895262FF999FECF1FBA92BD16
:102C500081BD20BD0FB6F894FA9AF99A0FBE01967D
:102C600008952F923F924F925F926F927F928F9230
:102C70009F92AF92BF92CF92DF92EF92FF920F930B
:102C80001F93CF93DF93CDB7DEB7CA1BDB0B0FB615
:102C9000F894DEBF0FBECDBF09942A8839884888D2
:102CA0005F846E847D848C849B84AA84B984C88468
:102CB000DF80EE80FD800C811B81AA81B981CE0F5F
:102CC000D11D0FB6F894DEBF0FBECDBFED01089544
:102CD000A29FB001B39FC001A39F700D811D11245D
:102CE000911DB29F700D811D1124911D0895A1E2C7
:102CF0001A2EAA1BBB1BFD010DC0AA1FBB1FEE1F76
:102D0000FF1FA217B307E407F50720F0A21BB30BC0
:102D1000E40BF50B661F771F881F991F1A9469F73C
:102D200060957095809590959B01AC01BD01CF0198
:102D30000895052E97FB1EF400940E94B01657FDCF
:102D400007D00E94771607FC03D04EF40C94B016FF
:102D500050954095309521953F4F4F4F5F4F0895C7
:102D600090958095709561957F4F8F4F9F4F0895F7
:102D7000EE0FFF1F0590F491E02D0994CF93DF93A0
:102D80008230910510F482E090E0E091DF03F09151
:102D9000E00320E030E0C0E0D0E0309711F1408166
:102DA000518148175907C0F04817590761F48281CB
:102DB0009381209719F09B838A832BC09093E00323
:102DC0008093DF0326C02115310519F04217530700
:102DD00018F49A01BE01DF01EF010280F381E02DBA
:102DE000DCCF2115310509F1281B390B24303105C1
:102DF00090F412968D919C9113976115710521F0B5
:102E0000FB019383828304C09093E0038093DF03EC
:102E1000FD01329644C0FD01E20FF31F81939193AF
:102E2000225031092D933C933AC02091DD0330911B
:102E3000DE03232B41F420912501309126013093AC
:102E4000DE032093DD03209123013091240121151D
:102E5000310541F42DB73EB740912701509128012B
:102E6000241B350BE091DD03F091DE03E217F3073D
:102E7000A0F42E1B3F0B2817390778F0AC014E5FEA
:102E80005F4F2417350748F04E0F5F1F5093DE0346
:102E90004093DD038193919302C0E0E0F0E0CF0125
:102EA000DF91CF9108950F931F93CF93DF930097F6
:102EB00009F48CC0FC013297138212820091DF0367
:102EC0001091E0030115110581F420813181820FF9
:102ED000931F2091DD033091DE032817390779F520
:102EE000F093DE03E093DD0371C0D80140E050E0D1
:102EF000AE17BF0750F412962D913C911397AD0178
:102F00002115310509F1D901F3CF9D01DA01338390
:102F1000228360817181860F971F8217930769F45E
:102F2000EC0128813981260F371F2E5F3F4F3183F7
:102F300020838A819B8193838283452B29F4F0939C
:102F4000E003E093DF0342C01396FC93EE931297E5
:102F5000ED01499159919E01240F351FE217F307A6
:102F600071F480819181840F951F029611969C9334
:102F70008E938281938113969C938E931297E0E0B7
:102F8000F0E0D80112968D919C911397009719F05B
:102F9000F8018C01F6CF8D919C9198012E5F3F4FE7
:102FA000820F931F2091DD033091DE03281739072C
:102FB00069F4309729F41092E0031092DF0302C005
:102FC000138212821093DE030093DD03DF91CF9111
:102FD0001F910F910895A0E0B0E0E1EFF7E10C94AC
:102FE0003516EC01009721F4CB010E94BE16B8C043
:102FF000FC01E60FF71F9C0122503109E217F3078D
:1030000008F4ACC0D9010D911C9111970617170750
:10301000B0F00530110508F49FC0C8010497861769
:10302000970708F499C002501109061B170B01936A
:1030300011936D937C93CF010E9453178DC05B0158
:10304000A01AB10A4C01800E911EA091DF03B0912D
:10305000E00340E050E0E12CF12C109709F44AC065
:10306000A815B905D1F56D907C901197630182E0A8
:10307000C80ED11CCA14DB0480F1A3014A195B09F4
:103080006A0182E0C80ED11C1296BC90129713966A
:10309000AC91B5E0CB16D10440F0B282A38351834A
:1030A0004083D9016D937C930AC00E5F1F4FC3010B
:1030B000800F911FF90191838083EB2DFA2FE1148A
:1030C000F10431F0D7011396FC93EE93129744C0AC
:1030D000F093E003E093DF033FC08D919C91119743
:1030E0004817590708F4AC017D0112960D90BC9168
:1030F000A02DB3CF8091DD039091DE038815990553
:10310000E1F446175707C8F48091230190912401F8
:10311000009741F48DB79EB7409127015091280147
:10312000841B950BE817F907C8F4F093DE03E093CE
:10313000DD03F901718360830FC0CB010E94BE16CD
:103140007C01009759F0A801BE010E94C218CE016F
:103150000E945317C70104C0CE0102C080E090E076
:10316000CDB7DEB7EEE00C94511681E090E0F89414
:103170000C94F5189111089581548A5108F4805ED9
:10318000855A0895FB01DC0102C001900D92415067
:103190005040D8F70895FC018191861721F08823CB
:1031A000D9F7992708953197CF010895FB01DC01E4
:1031B0008D91019080190110D9F3990B0895FB01AD
:1031C000DC0101900D920020E1F70895FB01DC0184
:1031D0004150504048F001900D920020C9F701C0C5
:0E31E0001D9241505040E0F70895F894FFCF43
:1031EE0000E1000000000000FFFFFFFFFF000000F5
:1031FE00002A66744475696E6F00000000000000BE
:10320E000000000000E103800066744475696E6F73
:10321E00000003636363630263636363636363005A
:10322E0063636301000263630100C18081000000DB
:10323E00800140040220081000000000BF05060AAD
:10324E002906F505D5052D064B066C65645F73657D
:10325E007400312E312E300066746475696E6F5FA6
:10326E0069645F736574006932635F616464725F81
:10327E00736574000D0A006D6F746F725F73657401
:10328E000066746475696E6F5F6469726563745FFE
:10329E006765745F76657273696F6E0066746475C8
:1032AE00696E6F5F69645F676574006932635F6141
:1032BE006464725F676574006D6F746F725F636FC5
:1032CE00756E746572006D6F746F725F636F756E7D
:1032DE007465725F616374697665006D6F746F7289
:1032EE005F636F756E7465725F7365745F62726132
:1032FE006B65006F75747075745F73657400696EBD
:10330E007075745F7365745F6D6F646500696E7060
:10331E0075745F67657400636F756E7465725F7345
:10332E0065745F6D6F646500636F756E7465725F53
:10333E0067657400636F756E7465725F636C65614B
:10334E007200636F756E7465725F6765745F737418
:10335E0061746500756C747261736F6E69635F651D
:10336E006E61626C6500756C747261736F6E696309
:06337E005F6765740000AA
:00000001FF
