:100000000C94D8040C9400050C9400050C941D0C61
:100010000C94F80B0C9400050C9400050C9400054E
:100020000C9400050C94C20B0C94CF070C9446085A
:100030000C9400050C9400050C9400050C9400052C
:100040000C9400050C9400050C9400050C9400051C
:100050000C9400050C9400050C9400050C944612B9
:100060000C94A20C0C94790C0C9400050C940005D3
:100070000C9400050C94E30C0C9400050C94000502
:100080000C94420C0C9400050C9400050C94000593
:100090000C94940A0C9400050C9400050C94000533
:1000A0000C9400050C9400050C9400050411071134
:1000B000F610FA10FE102811281128110B110F113B
:1000C000131119111D112811231100000000240023
:1000D00027002A002D003000080B00020202010058
:1000E000090400000102020000052400100105249B
:1000F000010101042402060524060001070581030D
:1001000010004009040100020A0000000705020275
:1001100040000007058302400000040309041201A7
:100120000002EF020140401C3805000101020301FA
:1001300054696C6C204861726261756D006674442C
:1001400075696E6F0000000000250028002B002E4E
:100150000031000404040404030405020202020442
:100160000302020202060606060606040402020252
:1001700004040408020110408040102040804080A8
:10018000080204018040201002011080102040402D
:10019000200000000200090F0000030401000C0011
:1001A000000000000000000000000000000000004F
:1001B000000006000C0013001900200026002D008E
:1001C00034003A00410048004E0055005C006300D6
:1001D0006A00700077007E0085008C0093009A0012
:1001E000A100A800AF00B700BE00C500CC00D4003D
:1001F000DB00E200EA00F100F800000107010F0156
:1002000017011E0126012E0135013D0145014D0159
:1002100054015C0164016C0174017C0184018C0156
:1002200094019D01A501AD01B501BE01C601CF013B
:10023000D701DF01E801F101F90102020A0213020C
:100240001C0225022E0236023F02480251025A02C7
:1002500064026D0276027F02880292029B02A5026E
:10026000AE02B802C102CB02D402DE02E802F20200
:10027000FB0205030F03190323032E033803420374
:100280004C03560361036B03760380038B039503D2
:10029000A003AB03B603C103CB03D603E103ED0315
:1002A000F80303040E041A04250430043C04480433
:1002B00053045F046B04760482048E049A04A6043B
:1002C000B304BF04CB04D804E404F104FD040A051C
:1002D0001705230530053D054A05570564057205D8
:1002E0007F058C059A05A805B505C305D105DF0571
:1002F000ED05FB05090617062506340642065106DC
:1003000060066E067D068C069B06AA06BA06C9061E
:10031000D806E806F706070717072707370747072E
:1003200057076707780788079907AA07BB07CC070D
:10033000DD07EE07FF0711082208340846085808B1
:100340006A087C088E08A108B308C608D908EB081B
:10035000FE081209250938094C0960097409880941
:100360009C09B009C509D909EE09030A180A2D0A22
:10037000420A580A6E0A840A9A0AB00AC60ADD0AB4
:10038000F30A0A0B210B380B500B670B7F0B970BF3
:10039000AF0BC80BE00BF90B120C2B0C440C5E0CD2
:1003A000770C910CAB0CC60CE00CFB0C160D320D4F
:1003B0004D0D690D850DA10DBD0DDA0DF70D140E56
:1003C000310E4F0E6D0E8B0EAA0EC80EE70E070FE4
:1003D000260F460F660F870FA70FC90FEA0F0C10E5
:1003E0002D10501072109510B910DC10001124114E
:1003F00049116E119311B911DF1106122D12541209
:100400007C12A412CC12F5121E13481372139D1302
:10041000C813F3131F144C147914A614D414021522
:10042000311561159115C115F21524165616891648
:10043000BC16F016241759178F17C517FC17341858
:100440006C18A518DF181A1955199119CD190B1A1E
:10045000491A881AC71A081B491B8C1BCF1B131C6F
:10046000581C9E1CE41C2C1D751DBF1D091E551E0D
:10047000A21EF01E3F1F8F1FE11F33208720DC20AC
:1004800032218A21E3213D229922F6225423B423EA
:1004900016247924DD244425AC2515268126EE2654
:1004A0005D27CE274128B6282D29A629212A9E2A54
:1004B0001E2BA02B252CAC2C352DC12D502EE12E22
:1004C000762F0D30A7304531E53189323133DC33B9
:1004D0008A343C35F235AC366B372D38F438BF39B9
:1004E000903A653B3F3C1E3D033EED3EDD3FD44030
:1004F000D041D342DD43EE44074627474F487F496A
:10050000B84AFA4B454D9A4EFA4F6451DA525B5451
:10051000E95584572C59E35AA95C7F5E65605D629A
:1005200068648666B968026B626DDB6F6E721D75FA
:10053000E977D67AE47D16817084F287A28B818F69
:100540009493DF97679C31A142A6A1AB56B168B7DF
:10055000E1BDCBC432CC24D4B2DCECE5EAEFC3FA83
:10056000FFFFFFFFFFFFFFFFFFFFFFFFFFFFFFFF9B
:10057000FFFFFFFFFFFFFFFFFFFFFFFFFFFFFFFF8B
:10058000FFFFFFFFFFFFFFFFFFFFFFFFFFFFFFFF7B
:10059000FFFFFFFFFFFFFFFFFFFFFFFFFFFFFFFF6B
:1009A000FFFFFFFFFFFFFFFFFFFFFFFFFFFFE51957
:1009B00011241FBECFEFDAE0DEBFCDBF24E0A8EBED
:1009C000B2E001C01D92A63CB207E1F712E0A0E040
:1009D000B1E0E2E8FEE302C005900D92A83BB1074A
:1009E000D9F714E0C8EDD4E004C02197FE010E94BD
:1009F000121DC73DD107C9F70E9490120C943F1FEA
:100A00000C9400004091250350912603209123036C
:100A10003091240342175307B4F49091E800957085
:100A2000E1F39091E80092FD19C08093F10080916C
:100A300025039091260301968F739927892B19F42A
:100A40008EEF8093E8008091250390912603019614
:100A5000909326038093250381E0089580E0089514
:100A6000DF92EF92FF920F931F93CF93DF93D82ED5
:100A7000F92EE42E062F10E0C8010196880F0E947F
:100A8000020583E00E940205CD2DDF2D0C0F1D1FF6
:100A9000C017D10789F0E7FE03C0FE01849101C0B1
:100AA00088810E940205F82E80E00E9402058F21B5
:100AB00021968111EDCF01C081E0DF91CF911F918F
:100AC0000F91FF90EF90DF900895DF92EF92FF92E9
:100AD0000F931F93CF93DF93D82E8A017B01E40EEF
:100AE000F51EEB01CE15DF0571F0D7FE03C0FE0148
:100AF000849101C088810E94020521968111F2CF64
:100B00008FEF9FEF01C0C801DF91CF911F910F912F
:100B1000FF90EF90DF900895CF92DF92EF92FF92D7
:100B20000F931F93CF93DF936C017A018B01C0E089
:100B3000D0E0CE15DF0581F0D8016D918D01D60191
:100B4000ED91FC910190F081E02DC6010995892B72
:100B500011F02196EECF7E01C701DF91CF911F9159
:100B60000F91FF90EF90DF90CF900895CF93DF9398
:100B70001F92CDB7DEB76983DC01ED91FC91028055
:100B8000F381E02D41E050E0BE016F5F7F4F09959A
:100B90000F90DF91CF910895FC018485958597FD95
:100BA0000BC09FB7F89482E08093E9008091F20037
:100BB0009FBF90E0019608959FB7F89482E08093DC
:100BC000E9008091F2009FBF90E0089585ED809349
:100BD000BC008091BC0084FDFCCF1092730308958B
:100BE00040910003262F30E0240F311D21323105C2
:100BF000DCF4209173032430C9F4FC0180E090E020
:100C0000861758F4309100032191DC01A052BD4FAA
:100C1000A30FB11D2C930196F3CF80910003680FB1
:100C20006093000380E0089581E0089582E00895D4
:100C3000089508950895E0912C0380912B03E817FF
:100C400030F4F0E0E35DFC4F808190E008958FEF99
:100C50009FEF089590912C0380912B03981750F4E7
:100C6000E92FF0E0E35DFC4F208130E09F5F90933F
:100C70002C0302C02FEF3FEFC901089580912B0391
:100C800090E020912C03821B91090895CF92DF926E
:100C9000EF92FF920F931F93CF93DF937C01CB01D1
:100CA0008A0120917403222389F0EB016B01C40EA9
:100CB000D51ECC15DD0569F06991D701ED91FC9148
:100CC0000190F081E02DC7010995F3CF642F0E94B8
:100CD000F005C801DF91CF911F910F91FF90EF9028
:100CE000DF90CF900895CF93DF931F92CDB7DEB7FB
:100CF0006983209174032223D1F02091960320323E
:100D000040F021E030E0FC013383228380E090E07A
:100D100015C080917503E82FF0E0EA58FC4F9981E7
:100D200090838F5F809375038093960305C061E085
:100D3000CE0101960E94F00581E090E00F90DF91D6
:100D4000CF910895089580E090E008950E94FF1EDD
:100D50000C94250E0F931F93CF93DF931F92CDB763
:100D6000DEB782E0898342E450E068ED70E080E81D
:100D70000E9465050E94C510DC0112960D911C9120
:100D800013970115110589F0D801ED91FC910280AE
:100D9000F381E02DBE016F5F7F4FC801099597FD7C
:100DA00004C0F80100851185ECCF89810F90DF9197
:100DB000CF911F910F9108958F929F92AF92BF9202
:100DC000CF92DF92EF92FF920F931F93CF93DF9317
:100DD0006C017B018A0180910701882309F45BC0C3
:100DE00080912A03882309F456C08091B80280FFBD
:100DF00005C08091E00082608093E000E801B12CA2
:100E00008AEFA82E93E0892E2AE3922E209711F4E0
:100E1000BB20D9F10E94B41081110AC0AA94AA2063
:100E2000D1F161E070E080E090E00E943D11EECFF2
:100E3000282F30E0C217D3070CF48C2F9FB7F894FB
:100E40008092E9002091E80025FF1DC0282F30E0A6
:100E5000C21BD30BF701815020F041914093F10068
:100E6000FACFE20EF31EBB2019F09092E8000AC000
:100E70008091E80085FD07C09092E800BB24B39400
:100E8000209709F0B12C9FBFC1CF84E6809328033F
:100E90001016110644F081E090E0F60193838283FE
:100EA00080E090E001C0C801DF91CF911F910F91C8
:100EB000FF90EF90DF90CF90BF90AF909F908F907A
:100EC00008950E94B41090E00895FC0184859585F2
:100ED00097FD05C02FEF3FEF3587248708950C94C9
:100EE0006910CF93DF93EC018C859D8597FF04C03B
:100EF0000E9469109D878C878C859D85DF91CF919D
:100F00000895EF92FF920F931F93CF93DF93EC011D
:100F1000198218821B821A821D821C82611571053A
:100F2000B9F17B01FB0101900020E9F731978F01B6
:100F3000061B170BB8016F5F7F4F80E090E00E94A7
:100F4000391E009759F0998388831B830A832C816B
:100F50003D81232B81F4FC0110820DC08881998191
:100F6000009711F00E94B01D198218821D821C8208
:100F70001B821A820DC01D830C83B7018881998161
:100F8000DF91CF911F910F91FF90EF900C94291F4B
:100F9000DF91CF911F910F91FF90EF9008951F92D5
:100FA0000F920FB60F9211242F933F934F935F939D
:100FB0006F937F938F939F93AF93BF93CF93EF9351
:100FC000FF93C091E1008091E100837F8093E10075
:100FD000C3FF0FC01092E90081E08093EB001092F4
:100FE000EC0082E38093ED0010922A0388E0809366
:100FF000F000C2FF14C00E94250E809128038823B0
:1010000029F080912803815080932803809129033F
:10101000882329F080912903815080932903C4FFFC
:1010200010C08091E2008E7E81608093E20080910A
:10103000E1008F7E8093E1008091B8028E7E806116
:1010400011C0C0FF11C08091E2008E7E806180934C
:10105000E2008091E1008E7E8093E1008091B802F1
:101060008E7E81608093B802FF91EF91CF91BF9106
:10107000AF919F918F917F916F915F914F913F9130
:101080002F910F900FBE0F901F9018951F920F92E7
:101090000FB60F921124CF92DF92EF92FF920F932F
:1010A0001F932F933F934F935F936F937F938F93F0
:1010B0009F93AF93BF93EF93FF93CF93DF93CDB7FE
:1010C000DEB76C97DEBFCDBF1092E9008091E800DB
:1010D00083FF0BC289E0FE017596EE2EDF2E815054
:1010E00029F09091F10090833196F9CF84E68093B6
:1010F000290382EF8093E8008D8987FF05C09091D6
:10110000E80090FFFCCF03C09EEF9093E800982F7B
:10111000907609F0C5C09E894F89588D2F89F88C2B
:1011200091110CC0803829F48091B9028093F100AC
:1011300002C01092F1001092F1004BC1913051F4B5
:10114000811147C14130510509F043C18091B90275
:101150008D7F0BC0933061F481113BC1413051054B
:1011600009F037C18091B90282608093B90231C120
:10117000953049F48091E80080FFFCCF822F806891
:101180008093E30026C1963009F05DC00B8D1C8D65
:1011900022E01092E9001092260310922503F21229
:1011A00032C010922403109223030E94AA0699E0F1
:1011B000BE016F5F7F4FDB01E92F1D92EA95E9F7D2
:1011C0009983FA8291E09E8390EA98879AEF9987B3
:1011D0002091250330912603275F3F4F3C832B83CB
:1011E0008D831092E900109226031092250310932C
:1011F00024030093230349E050E080E00E9465054A
:101200000E94AA06E6C010932403009323030E94C1
:10121000C510DC0112960D911C9113970115110553
:1012200009F4C1C0D801ED91FC910480F581E02D55
:101230006E2D7D2DC8010995009709F0CEC0F801EB
:1012400000851185EBCF973009F44CC1983021F41B
:1012500081E08093F100BDC0993009F0BAC083707D
:1012600009F040C1EAE4F1E081E031E096E3208159
:10127000211109C08EE78093EA001092EA008F895D
:1012800080932A03A6C08093E9003093EB0021915C
:101290002093EC009093ED008F5F873041F7EACF09
:1012A0008B8D9C8D1092E9001092260310922503DD
:1012B0009093240380932303898D81115BC08E89D1
:1012C0009D89913A49F4813209F00CC147E050E020
:1012D00060E071E080E0C2C0913209F003C1833266
:1012E00069F48F89988DA0E0B0E080930901909314
:1012F0000A01A0930B01B0930C016BC08032A9F4DA
:101300008091E80082FFFCCF88E0E0E0F1E08150CE
:1013100029F09091F10090833196F9CF84E6809383
:1013200029038BEF8093E80054C0823209F051C04A
:101330008F8980930701EEEFFFE7859194918B3FB2
:101340009C4D19F0E0E0F8E002C0EEEFFAE0809189
:10135000000190910101A0910201B0910301803B35
:101360009440A105B10509F09DC08091070180FF5F
:1013700078C098C00E94C510FC010281138101153C
:10138000110509F4AFC0D801ED91FC910190F081F5
:10139000E02D6E2D7D2DC801099581111AC0F8012F
:1013A00000851185ECCFF1E0FF1609F44EC0F3E0A3
:1013B000FF1298C08F89882309F44AC0823089F4CB
:1013C00040E867E08DE391E00E943005882309F44E
:1013D00089C08EEF8093E80088C018161906CCF3F8
:1013E00081C0813029F440E86CE080E391E0ECCFEB
:1013F000833009F077C00E94C510DC011296ED9091
:10140000FC9013978E010F5F1F4F6801E114F104E8
:1014100079F0D701ED91FC910680F781E02DB801BC
:10142000C7010995080F111DF701E084F184EECF83
:10143000D8011C92F60101900020E9F73197BF0115
:101440006C197D0940E0C601BFCF6EE171E002C0BA
:101450006AE171E0FB01449150E080E80E9465057B
:10146000B8CFEE3F2AE0F20751F0808191818737B3
:10147000A7E79A0721F09093FF0A8093FE0A87E777
:1014800097E79183808380916000809327039BE09E
:1014900088E10FB6F894A895809360000FBE9093F2
:1014A000600097CF808191818737974709F091CF6E
:1014B000A8958091600088618093600080912703E7
:1014C00080936000EE3FBAE0FB0739F08091FE0A9E
:1014D0009091FF0A918380837CCF1092FF0A109233
:1014E000FE0A77CF81E28093EB006C960FB6F894FA
:1014F000DEBF0FBECDBFDF91CF91FF91EF91BF91C6
:10150000AF919F918F917F916F915F914F913F919B
:101510002F911F910F91FF90EF90DF90CF900F9040
:101520000FBE0F901F9018951F920F920FB60F923B
:1015300011242F933F934F935F936F937F938F93D8
:101540009F93AF93BF93EF93FF938091B900887FF0
:10155000803609F49CC068F5883209F45BC090F4C9
:10156000803109F454C038F4882309F4F6C0883077
:1015700009F44DC0F6C0883109F44CC0803209F43A
:101580005DC0EFC0803409F468C048F4803309F4CA
:1015900055C0883309F0E5C080937103D8C0803509
:1015A00009F44FC0883509F45DC0883409F0D9C00A
:1015B000D6C0883909F4C7C0A8F4883709F467C0D1
:1015C00038F4883609F463C0803709F460C0C9C0B4
:1015D000883809F4B8C0803909F45FC0803809F050
:1015E000C0C05BC0803B09F486C038F4803A09F47F
:1015F00066C0883A09F47FC0B4C0803C09F4A7C033
:10160000883C09F4A4C0883B09F48AC0AAC0809130
:101610004E0310C09091700380916F03981770F57E
:10162000E091700381E08E0F80937003F0E0E15B46
:10163000FC4F80818093BB0085EC86C08093710352
:101640008EC0E091700381E08E0F809370038091D3
:10165000BB00F0E0E15BFC4F8083909170038091D0
:101660006F036EC0E091700381E08E0F8093700372
:101670008091BB00F0E0E15BFC4F808380917203BE
:1016800081116DC081E080934D0384EA61C083E0E5
:101690008093730310922203CFCF80912203803274
:1016A00008F051C0E091220381E08E0F8093220365
:1016B0008091BB00F0E0EE5FFC4F8083BDCF85ECF6
:1016C0008093BC001092730380912203803230F427
:1016D000E0912203F0E0EE5FFC4F10826091220364
:1016E00070E0E091BA02F091BB0282E093E00995CC
:1016F0001092220336C084E080937303109201039A
:1017000010920003E091BC02F091BD020995809116
:101710000003811105C081E0809300031092E00274
:10172000E091010381E08E0F80930103F0E0E0522D
:10173000FD4F80818093BB00909101038091000355
:10174000981708F479CF85E88093BC000AC085EC2F
:101750008093BC001092730304C0109271030E9426
:10176000E605FF91EF91BF91AF919F918F917F918E
:101770006F915F914F913F912F910F900FBE0F90FE
:101780001F9018951F920F920FB60F9211242F934E
:101790003F934F935F936F937F938F939F93AF93F9
:1017A000BF93CF93DF93EF93FF93D3B1C091080121
:1017B000CD27C5FF03C082E00E94A210C6FF03C070
:1017C00083E00E94A210D0930801FF91EF91DF9176
:1017D000CF91BF91AF919F918F917F916F915F91C9
:1017E0004F913F912F910F900FBE0F901F90189522
:1017F0001F920F920FB60F9211242F933F934F9386
:101800005F936F937F938F939F93AF93BF93EF9368
:10181000FF9381E00E94A210FF91EF91BF91AF91E1
:101820009F918F917F916F915F914F913F912F91F8
:101830000F900FBE0F901F9018951F920F920FB62A
:101840000F9211242F933F934F935F936F937F9346
:101850008F939F93AF93BF93EF93FF9380E00E948A
:10186000A210FF91EF91BF91AF919F918F917F91C6
:101870006F915F914F913F912F910F900FBE0F90FD
:101880001F9018951F920F920FB60F9211248F93ED
:101890009F9380917F048823E1F080917E0491E002
:1018A000980F90937E04843029F48FEF8093810405
:1018B0008093800410927F048091C9008F7E809372
:1018C000C900729A8FE094EF9093950080939400F2
:1018D00009C081E080937F0472988091C900806183
:1018E0008093C9009F918F910F900FBE0F901F9012
:1018F00018951F920F920FB60F9211248F939F93FA
:101900008091CE0090917F04913059F4982F987F68
:10191000903819F487708093800482E080937F046C
:101920000AC0923041F487FF8093810483E0809362
:101930007F0410927E049F918F910F900FBE0F90A5
:101940001F9018951F920F920FB60F9211242F938C
:101950003F934F935F938F939F93EF93FF93809168
:10196000FB03982F937081F4289A2898E82FE69526
:10197000E695F0E0EE0FFF1FE951FC4F45895689CF
:1019800050937D0440937C0480FF0CC081FB222790
:1019900020F930E029513C4FF901EB56FF4F90817F
:1019A0009EBD01C01EBC8F5F8093FB03FF91EF9132
:1019B0009F918F915F914F913F912F910F900FBE0B
:1019C0000F901F9018951F920F920FB60F9211242F
:1019D0002F933F934F935F936F937F938F939F9337
:1019E000AF93BF93EF93FF938091E70380FF1AC0FB
:1019F000482F50E055954795209178003091790017
:101A0000FA01EE0FFF1FE951FC4F3283218321E0E1
:101A100030E001C0220F4A95EAF79091FA03292B92
:101A20002093FA038F5F982F9F709093E703837042
:101A300029F4892F869586950E94750F8091E7037A
:101A400080FD03C00E94CD0D05C080917A008064A6
:101A500080937A00FF91EF91BF91AF919F918F9109
:101A60007F916F915F914F913F912F910F900FBE9A
:101A70000F901F90189583FF02C0469A08954698CC
:101A800080FF02C0889A01C0889881FF02C0899AAD
:101A900001C0899882FF02C05D9A08955D980895FB
:101AA000282F30919603313208F04AC08091730399
:101AB0008111FCCF9091AC0442E0409373032093DA
:101AC00072032FEF209371031092700330936F0312
:101AD000E6E7F3E0AFE4B3E020E0321721F0419114
:101AE0004D932F5FFACF10924E0320914E03990F22
:101AF000922B90934E0390914D03913061F410928C
:101B00004D0390914E039093BB009091BC0093FDC8
:101B1000F8CF95EC01C095EE9093BC0090917303C3
:101B20009230E1F3909171039F3F79F080917103BE
:101B3000803241F080917103803331F084E005C040
:101B400081E003C082E001C083E01092750310922F
:101B50009603109274030895FF920F931F93CF93EF
:101B6000DF930DE011E0C0E0D0E0F801F1908F01CB
:101B7000CE010E940F1BF81621F06F2DCE010E949E
:101B8000171B2196C631D10581F78DE091E0DF91D9
:101B9000CF911F910F91FF9008958091E70390E0FE
:101BA000959587952091F80330E0082E02C0359571
:101BB00027950A94E2F720FF8FEF0E943B0D2091BA
:101BC000E703822F90E095958795837023FD06C0EB
:101BD000846480937C0010927B0006C080648093B4
:101BE0007C0080E280937B0080917A008064809307
:101BF0007A0008951F93CF93DF93162FCDE9D4E099
:101C0000988121E0209374039093AC0410927503A3
:101C100010929603A981BA81ED91FC9111970190E0
:101C2000F081E02D682FCD01099589819A81DC0131
:101C3000ED91FC910190F081E02D612F099581E0FB
:101C4000DF91CF911F910C94500D83E08093E900B8
:101C50008091F200882319F08AE38093E8000895C8
:101C6000009769F0FC0101900020E9F73197AF017E
:101C7000481B590BBC0187E993E00C94DC0680E01B
:101C800090E008958F929F92AF92BF920F931F930F
:101C9000CF93DF93CDB7DEB7A1970FB6F894DEBF31
:101CA0000FBECDBF19A2423008F44AE08E010F5D8D
:101CB0001F4F842E912CA12CB12CA50194010E94C0
:101CC000D11CE62FB901CA0101501109EA3014F400
:101CD000E05D01C0E95CD801EC93232B242B252B7C
:101CE00061F7C8010E94300EA1960FB6F894DEBFCE
:101CF0000FBECDBFDF91CF911F910F91BF90AF90DD
:101D00009F908F900895CF92DF92EF92FF92CF93A2
:101D1000DF936C01990FEE08FF08F7FE13C06DE228
:101D200087E993E00E94B605EC0166277727CB018F
:101D30006C197D098E099F094AE00E94420EC80F66
:101D4000D91F06C04AE0C701B6010E94420EEC014D
:101D500086EA91E00E94300E8C0F9D1FDF91CF919B
:101D6000FF90EF90DF90CF900895FC0124813581A2
:101D7000232B31F421E061157105A1F0FB0108C0AE
:101D8000FC01808191816115710531F421E0FC0134
:101D90008081882339F005C00E94201F21E0892B13
:101DA00009F020E0822F0895811103C099B1947049
:101DB0000BC0813019F499B1987006C093B182308C
:101DC00011F4907201C0907481E0911101C080E023
:101DD0000895CF92DF92EF92FF920F931F93282FD7
:101DE000237030E0F901613051F4EC5AFE4FC080AD
:101DF000D12CE12CF12CF901E05BFE4F0BC06230DD
:101E000071F4E05BFE4FC080D12CE12CF12CF90184
:101E1000EC5AFE4F008110E020E030E00EC0EC5A9A
:101E2000FE4FD901A05BBE4F00819C91092B10E0B1
:101E300020E030E0C12CD12C760182FD08C0FE2CC0
:101E4000ED2CDC2CCC24322F212F102F0027E7EE95
:101E5000F3E050E0B601602B712B60957095009512
:101E6000109585899689541728F48C299D298023FB
:101E7000912302C086239723968B858B5F5F3296D2
:101E8000503479F71F910F91FF90EF90DF90CF9032
:101E90000895CF93DF93D42FC82FCC0F613079F002
:101EA00030F0623099F06330E9F462E010C040E055
:101EB00060E08C2F0E94E90E40E060E00DC062E01F
:101EC0008C2F0E94E90E4D2F61E006C061E08C2F3F
:101ED0000E94E90E4D2F62E081E08C0FDF91CF91DF
:101EE0000C94E90EDF91CF9108958F929F92AF925B
:101EF000BF92CF92DF92EF92FF920F931F93CF93F7
:101F0000C82F809193040C2F10E090E00C2E02C09B
:101F1000959587950A94E2F780FF3CC08C2F0E942C
:101F2000D40E8823B9F18091920490E00C2E02C067
:101F3000959587950A94E2F780FD2CC0F801EE0F85
:101F4000FF1FEC56FB4F80819181019619F520917E
:101F5000930480E190E00C2E02C0880F991F0A9430
:101F6000E2F730E082239323892B11F460E001C073
:101F700063E040E48C2F0E94490F2091930481E09C
:101F800090E00C2E01C0880F0A94EAF78095822316
:101F9000809393047801EE0CFF1CEE0CFF1CC7012C
:101FA0008E579B4F6C01FC0180819181A281B3818E
:101FB000892B8A2B8B2B09F45EC00E942112F6011B
:101FC00080809180A280B380DC01CB0188199909BF
:101FD000AA09BB09893E9340A105B10508F44BC08D
:101FE0008C2F0E94D40E90919204292F30E00C2E59
:101FF00002C0359527950A94E2F720FF0BC08111A6
:102000003AC021E030E001C0220FCA95EAF72095DE
:10201000292309C0882379F121E030E001C0220F93
:10202000CA95EAF7292B2093920420919C0430E072
:10203000A801440F551F02C0359527954A95E2F730
:102040002370233039F0811103C0223069F402C0BB
:10205000213051F4000F111FF801EC56FB4F808125
:102060009181019691838083F701EE57FB4F108297
:10207000118212821382CF911F910F91FF90EF90E6
:10208000DF90CF90BF90AF909F908F900895CF93A7
:10209000DF93FC01C081D181209751F08881882392
:1020A00039F0082E000C990B0E94041F8993F6CF7B
:1020B000DF91CF910895CF93DF930E94300EEC0112
:1020C00086EA91E00E94300E8C0F9D1FDF91CF9128
:1020D0000895CF93DF931F92CDB7DEB780912A0387
:1020E000811103C08FEF9FEF29C03FB7F89482E0C2
:1020F0008093E9008091F20090E01816190614F41C
:1021000081E090E0282FFE01319644E6215030F026
:10211000409329035091F1005193F8CF009721F09B
:102120002091F200222331F03FBF0197D9F6898137
:1021300090E004C02BE62093E800F6CF0F90DF91EB
:10214000CF910895CF93C82F0E94750F0E9421123E
:1021500024E0C29FF0011124EE57FB4F608371838E
:1021600082839383CF9108952FB7F89483E080936F
:10217000E9009091E800892F807295FF04C090914A
:10218000F20080E4891B2FBF08958091A40481117F
:102190000DC082E08093A00484E08093A10410929B
:1021A000A3041092A20481E08093A40480EA94E046
:1021B0000895362F90E0FC01EF56FE4F4491FC014C
:1021C000EE58FE4F2491FC01ED5AFE4F8491882376
:1021D00009F452C04423E1F150E0FA013197EF30A5
:1021E000F105B0F5EA5AFF4F0C94121D9091800052
:1021F0009F7707C0909180009F7D03C090918000E1
:10220000977F9093800024C094B59F7702C094B5C7
:102210009F7D94BD1DC0909190009F7707C09091C5
:1022200090009F7D03C090919000977F90939000C5
:102230000FC09091C0009F7703C09091C0009F7D18
:102240009093C00005C09091C200977F9093C20008
:10225000E82FF0E0EE0FFF1FEB5BFE4FA591B4916E
:102260009FB7F894311104C08C912095282302C0A7
:10227000EC912E2B2C939FBF08958F929F92AF923B
:10228000BF92CF92DF92EF92FF926B017C010E948E
:1022900021124B015C01C114D104E104F104F1F0FD
:1022A0000E942112DC01CB0188199909AA09BB09F6
:1022B000883E9340A105B10570F321E0C21AD10810
:1022C000E108F10888EE880E83E0981EA11CB11C7D
:1022D000C114D104E104F10419F7DDCFFF90EF90B0
:1022E000DF90CF90BF90AF909F908F900895CF9345
:1022F000DF9326E636E646E65FE30E94511A9B012D
:10230000AC0160E27CEB8EEB95E40E94D81B20E0F0
:1023100030E040E85FE30E946B1B20E030E040E0EB
:102320005FE30E946C1B0E94791C0E944A1CD62FFE
:1023300080919D0491E0909374038093AC0410927B
:1023400075031092960380919E0490919F04DC0186
:10235000ED91FC910190F081E02D60E0099581E024
:102360000E94500D80919D04909173039111FCCFB8
:1023700091E090937303909372032FEF2093710376
:102380001092700310926F0390934E0390914E033E
:10239000880F892B80934E0380914D03813061F427
:1023A00010924D0380914E038093BB008091BC003E
:1023B00083FDF8CF85EC01C085EE8093BC00809151
:1023C00073038130E1F380917003811103C0909118
:1023D000700301C091E0AFE4B3E0EDE2F3E080E030
:1023E000891721F02D9121938F5FFACF10922C0342
:1023F00080932B0380919E0490919F04DC01ED91CA
:10240000FC910284F385E02D0995C82F682F6F7623
:10241000606180E00E94FA0D6D2F8EEF0E94FA0D30
:102420006C2F80E00E94FA0D65E070E080E090E0A3
:102430000E943D116C2F606A80E0DF91CF910C9477
:10244000FA0D3FB7F8948091BE049091BF04A0911B
:10245000C004B091C10426B5A89B05C02F3F19F058
:102460000196A11DB11D3FBFBA2FA92F982F882714
:10247000820F911DA11DB11DBC01CD0142E0660F6F
:10248000771F881F991F4A95D1F708951F920F92C1
:102490000FB60F9211242F933F938F939F93AF9377
:1024A000BF938091BA049091BB04A091BC04B091F9
:1024B000BD043091B90423E0230F2D3720F4019699
:1024C000A11DB11D05C026E8230F0296A11DB11D57
:1024D0002093B9048093BA049093BB04A093BC04E6
:1024E000B093BD048091BE049091BF04A091C0043C
:1024F000B091C1040196A11DB11D8093BE049093BB
:10250000BF04A093C004B093C104BF91AF919F9149
:102510008F913F912F910F900FBE0F901F901895A4
:10252000CF93DF93CDB7DEB72C970FB6F894DEBF0D
:102530000FBECDBF789484B5826084BD84B58160C0
:1025400084BD85B5826085BD85B5816085BD80917E
:102550006E00816080936E001092810080918100F6
:1025600082608093810080918100816080938100EE
:1025700080918000816080938000809191008260D2
:10258000809391008091910081608093910080916F
:1025900090008160809390008091C100846080935E
:1025A000C1008091C10082608093C1008091C10010
:1025B00081608093C1008091C30081608093C300DB
:1025C0008091C00082608093C0008091C2008160D1
:1025D0008093C20080917A00846080937A00809119
:1025E0007A00826080937A0080917A008160809383
:1025F0007A0080917A00806880937A0010922A0392
:102600001092B9021092B8028091D7008160809335
:10261000D70080EA8093D80089B5806189BD89B5EB
:10262000826089BD09B400FEFDCF61E070E080E00A
:1026300090E00E943D118091D8008F7C8061809352
:10264000D8008091E000807F8093E0008091E100DD
:102650008E7E8093E1008DE08093E200EFE7F1E071
:102660002491E0E6F1E08491882399F090E0880FCE
:10267000991FFC01E653FF4FA591B491FC01EB5B60
:10268000FE4F859194918FB7F894EC91E22BEC93E7
:102690008FBF10922C0310922B031092750310928F
:1026A00096031092730381E08093720310924D039E
:1026B00061E082E00E94D91061E083E00E94D910BD
:1026C0008091B9008E7F8093B9008091B9008D7F91
:1026D0008093B90088E48093B80085E48093BC00BF
:1026E00088E196E09093BD028093BC0289E196E078
:1026F0009093BB028093BA0260E880E00E94FA0DDA
:102700006AE070E080E090E00E943D1160E070E0DF
:102710008AE794E40E94771160E070E080E792E439
:102720000E9477118FEF9FEF9093A4038093A303F0
:10273000109107016AE070E080E090E00E943D1196
:10274000111115C061E08DE00E94D91062E370E0C4
:1027500080E090E00E943D1160E08DE00E94D91081
:1027600062EC71E080E090E00E943D11E1CF1DE05D
:10277000E12E11E0F12E00E010E0C8010E940F1BD5
:10278000D7018D937D010F5F1F4F06311105A9F70A
:1027900080910D0190910E01A0910F01B091100157
:1027A0008F3E9E4BAD4ABE4DB9F08FEE9EEBADEA2B
:1027B000BEED80930D0190930E01A0930F01B09395
:1027C00010018AE28093110169E271E082E191E0F7
:1027D0000E94291F0E94AC0D3E9A469A809A8898C2
:1027E000819A8998559A5D9880EF80937E008FE05A
:1027F00080937D0084E480937C008FE880937A004E
:1028000010927B001092E7031092FA030E94CD0D04
:102810006A9A729880E190E09093CD008093CC000A
:1028200082E08093C80080E88093C90086E08093AE
:10283000CA0084B1876084B9289A86ED8CBD8DB5B5
:102840008E7F8DBD6E9A769A279A2F98ECEFF3E0E3
:102850008CE794E0119211928E179F07D9F710928E
:10286000FB031EBC8AB1837F8AB98BB1837F8BB98E
:1028700084B18F7984B985B18F7985B980EF8093E0
:10288000930410929C0480E5809369008CE08DBBDA
:1028900081E08093680080E680936B0088E18093FC
:1028A000810083E080938000109285001092840064
:1028B00085E09FEF90938900809388008FEF9FEFD2
:1028C00090938B0080938A0084E086BB80936F0096
:1028D000809181008360809381008FEF80939204C8
:1028E00010929504109294041092970410929604FA
:1028F000109299041092980410929B0410929A04DA
:1029000022242A94B3E03B2E412C512CCC24C39496
:10291000D12C87E993E00E94CC05892B39F480E023
:1029200090E0892BB1F30E940000F0CF87E993E09B
:102930000E946507E091DF028A3011F08D3079F551
:102940001E163CF70E2E000CFF0BE254FD4F1082BA
:1029500060E270E08EEB92E00E94151F009731F06C
:102960008C010F5F1F4FDC011C9202C000E010E0E1
:102970006EEB72E0CE0107960E948107CE010796AA
:102980000E9447106CE771E0CE0107960E94B50ED9
:10299000882309F482C00115110579F47EC0E03264
:1029A0000CF0B7CF91E09E0F9093DF020E2E000C3B
:1029B000FF0BE254FD4F8083ACCFC8010E942B1A5D
:1029C000892B11F460E001C061E08DE00E94D91014
:1029D000EE24E394F12C33C06AE871E0CE0107964F
:1029E0000E94B50E811165C066ED71E0CE010796BB
:1029F0000E94B50E81116CC069E971E0CE010796A5
:102A00000E94B50E882309F468C00115110509F468
:102A100064C0C8010E942B1A809311010E94AC0D62
:102A20006091110170E080E090E04AE00E94420E67
:102A300086EA91E00E94300EE2E0EE2EF12CB80121
:102A4000CE0101960E948107CE0101960E94471097
:102A5000AD80BE80BFEFAB16BB0691F0011511052E
:102A600079F0A114B10411F4F80109C069817A81E7
:102A7000A501C8010E94301FF801EA0DFB1D10825C
:102A800069EA71E0CE0107960E94B50E882309F429
:102A900071C00115110569F56DC06BEB71E0CE01D8
:102AA00007960E94B50E882309F496CF84E891E03A
:102AB00011C00115110509F497CF41E150E0B801AB
:102AC00082E191E00E94301F109222010E94AC0D21
:102AD00082E191E00E945B10AFCF65EE71E0CE0124
:102AE00007960E94B50E81119BCFEE24EA94FE2C2E
:102AF000A6CF60E270E0C8010E94151F5C01892B1F
:102B000009F4D7C0D5011D92CD0160E270E00E94AA
:102B1000151F009709F4CDC0FC011192CF010E944E
:102B20002B1A97FD0BC08115F2E09F0754F4AC01FE
:102B300073E0559547957A95E1F705C040E050E080
:102B400002C040EC5FEFD8018C918D3609F0B1C026
:102B500011968C918153F50191819C3631F0923719
:102B600011F063E003C062E001C061E0843008F06E
:102B7000A0C088C062EF71E0CE0107960E94B50E3A
:102B8000882309F482C00115110509F47EC060E2B2
:102B900070E0C8010E94151F3C01892B09F489C00F
:102BA000D3011D92CD0160E270E00E94151F0097D5
:102BB00009F47FC04C01BFEF8B1A9B0AFC01108205
:102BC00060E270E0C4010E94151F5C01009709F4E7
:102BD00070C0DC011C92C4010E942B1A97FD7DC0BD
:102BE0008115B2E09B070CF07BC04C0163E095942B
:102BF00087946A95E1F7F80180818D3609F059C014
:102C000011811153D30111968C918C3609F46FC048
:102C1000823709F46AC003E0143008F04AC0C501E5
:102C200001960E942B1A212F30E0220F331F43E020
:102C300050E0022E01C0440F0A94EAF740955091EB
:102C40009C04642F6523A601022E01C0440F0A9440
:102C5000EAF7462B40939C04919581959109F901DF
:102C6000EC56FB4F9183808320919304C601012E83
:102C700001C0880F0A94EAF7822B80939304482DB1
:102C8000602F812F0E94490F23C360E072E0CE01C4
:102C900007960E94B50E882361F10115110549F1CF
:102CA000D8018C918D3629F4F801218121532430EB
:102CB00068F122E0E216F10419F0C7010E94830EC8
:102CC0000E94250E1092DF0289819A810E94B01D18
:102CD0008F8198850E94B01D1CCE812C912C8BCFAA
:102CE00050EC852E99249A9486CF02E095CF01E08E
:102CF00093CF65E172E0CE0107960E94B50E88235E
:102D000009F44FC00115110589F44BC0809193045B
:102D100090E002C0959587952A95E2F780FF03C061
:102D200081E090E0CBCF80E090E0C8CF60E270E03F
:102D3000C8010E94151F5C01892B09F4BACFD50187
:102D40001D92CD0160E270E00E94151FFC0110820F
:102D5000D8018C918D3609F0ACCF11968C918153AE
:102D6000F5019181963679F0943709F0A2CF209140
:102D7000930440E150E002C0440F551F8A95E2F7EA
:102D8000CA01822B0BC09091930420E130E001C076
:102D9000220F8A95EAF7822F8095892380939304E6
:102DA00097C26DE272E0CE0107960E94B50E8823AD
:102DB00019F00115110571F468E372E0CE01079670
:102DC0000E94B50E882309F4A2C00115110509F06F
:102DD00044C09DC060E270E0C8010E94151F5C0104
:102DE000892B09F466CFD5011D92CD0160E270E018
:102DF0000E94151F009709F45CCFFC011192CF01CE
:102E00000E942B1A97FD0BC08115F2E09F0754F426
:102E1000AC01B3E055954795BA95E1F705C040E0A0
:102E200050E002C040EC5FEFD8018C918F3609F082
:102E300040CF11968C918153F5019181913321F00E
:102E4000923321F060E003C061E001C062E08830AD
:102E500008F02FCF0E94E90E3BC260E270E0C8018B
:102E60000E94151FFC01892B09F423CFD80111966C
:102E70009C9111971082E181E257E53008F019CF5B
:102E80008FEC890F883008F014CFF0E0EC5BFE4F38
:102E90004081433609F40DCF9C91993609F009CF52
:102EA000F60102C0EE0FFF1F8A95E2F7CF012091D5
:102EB000F803411105C03091F9033E2399F006C093
:102EC000423041F43091F9033E2361F4322F38232C
:102ED00049F0FEC1322F3E2309F4FAC13E2F30954E
:102EE000232301C0282B2093F8033091F903282FC6
:102EF0002095423010F4832B02C0832F82238093CD
:102F0000F9038091FA0328232093FA03E1C167E4CF
:102F100072E0CE0107960E94B50E882319F00115C4
:102F2000110571F461E572E0CE0107960E94B50EBD
:102F3000882309F45CC00115110509F089C057C048
:102F4000F80181818153883008F0B3CED8019C917B
:102F5000993609F0AECEE82FF0E02091F80330E08A
:102F6000082E02C0359527950A94E2F720FD07C088
:102F7000960102C0220F331F8A95E2F719C02091F3
:102F8000F90330E0082E02C0359527950A94E2F740
:102F900020FF03C00E94BB1928C00E94BB1951E04A
:102FA00040E0843F914008F050E0852F942F1DC0F1
:102FB0008091FA0390E082239323892B39F48FE8E0
:102FC00091E00197F1F700C00000F2CFEE0FFF1F74
:102FD000E951FC4F21813281A0E1B7E20E945C1BE4
:102FE000A20191010E94F31CC901BC0127C062E645
:102FF00072E0CE0107960E94B50E882309F464C0E2
:103000000115110509F460C0D80111968C919FEC4F
:10301000B92EB80EB3E0BB1508F44BCED8018C9195
:10302000833609F046CE8B2D0E94750FEB2DF0E014
:10303000EE0FFF1FEC56FB4F6081718180E090E046
:103040004AE00E94420E86EA91E00E94300E38CE9D
:1030500060E270E0C8010E94151FFC01892B09F491
:1030600028CED80111969C9111979153E181E15698
:10307000E23108F01ECEF0E0EE5CFE4F2081983089
:1030800008F017CE233609F414CE8C91833609F05C
:1030900010CE892F90E0880F991F43E050E0082E52
:1030A00001C0440F0A94EAF7409590919C0449238B
:1030B00030E0F90102C0EE0FFF1F8A95E2F7CF0161
:1030C000842B80939C0404C16EE672E0CE010796C7
:1030D0000E94B50E8823B9F001151105A1F0D801A1
:1030E0001196EC91E153E43008F0E3CDD8018C91D6
:1030F000833609F0DECDF0E0EE0FFF1FEC56FB4FFC
:1031000011821082E5C06CE772E0CE0107960E9442
:10311000B50E8823A1F00115110589F0F801818110
:103120008153843008F0C5CDF8019081933609F0C1
:10313000C0CD0E94D40EF1E08F2790E0BFCD6EE8A5
:1031400072E0CE0107960E94B50E8823A1F1011509
:10315000110589F1D8018C91863661F48091710056
:103160008D7F8093710072988091C9008F7E8093CB
:10317000C900AEC0843709F09CCD21E020937F04C4
:1031800010927E043FEF309381043093800480914D
:103190009C048C7F80939C04109290004BE04093A1
:1031A000910063E274EF709399006093980082E05D
:1031B000809371008DC060EA72E0CE0107960E9494
:1031C000B50E982E882381F0209180042F3F49F07E
:1031D0008091810490E070E8279F800D911D11245B
:1031E0006DCD8FEF9FEF6ACD63EB71E0CE01079657
:1031F0000E94B50E882309F457C00115110509F482
:1032000053C060E270E0C8010E94151F009709F4E6
:1032100050CD5C01AFEFAA1ABA0AFC01108260E23D
:1032200070E0C5010E94151F009709F442CDDC0132
:103230001D92CD010E942B1A8115B0E19B0734F439
:10324000181619063CF4F82EE92E06C0F12C50E1B0
:10325000E52E02C0F12CE12CC5010E942B1A81152C
:10326000E0E19E0734F4181619063CF4B82EA92E96
:1032700006C0B12C40E1A42E02C0B12CA12CC80183
:103280000E942B1A8F3091052CF41816190624F47D
:10329000982E02C03FE0932E4F2D5E2D6B2D7A2D80
:1032A000892D0E94731914C06FEA72E0CE0107964F
:1032B0000E94B50E882309F4FCCC40E050E060E0A9
:1032C00070E1892D0E9473199394FFE09F12F5CF4E
:1032D000EE24E394F12CF1CCDC01ED91FC91019012
:1032E000F081E02D0994EF92FF920F931F93CF93FB
:1032F000DF93E62E072FF42E152FCDE9D4E0988129
:1033000021E0209374039093AC0410927503109203
:103310009603A981BA8124E0829FC0011124BC01D7
:103320006A5F7F4FED91FC9111970190F081E02D44
:10333000CD0109956E2D702F89819A810E946C199B
:10334000602F70E089819A810E946C196F2D712F16
:1033500089819A810E946C19612F70E089819A811C
:103360000E946C1981E0DF91CF911F910F91FF9026
:10337000EF900C94500D8830F8F4E82FF0E021E045
:1033800030E002C0220F331F8A95E2F78091FA03E2
:1033900090E082239323892B39F48FE891E0019701
:1033A000F1F700C00000F2CFEE0FFF1FE951FC4F14
:1033B0000180F281E02D02C0E0E0F0E0EE0FFF1F9F
:1033C000E055FE4F859194910895CF93DF93E7E9FF
:1033D000F3E01382128288EE93E0A0E0B0E08483F1
:1033E0009583A683B7832CE531E0318320832FEFCB
:1033F0003FEF35872487EDEAF4E01382128284835D
:103400009583A683B7838EE691E091838083A7EEB0
:10341000B3E08FEF51968C93519752961C9252972E
:1034200053961C92539754961C92809380048093D9
:10343000810480E1A2E8B4E0ED0119928A95E9F7F0
:10344000ADE9B4E080E48C931296FC93EE9311976F
:10345000DF91CF910895FC0188279927E894219165
:103460002032E9F3293010F02E30C8F32B3241F02E
:103470002D3239F4689404C00E94491A820F911DBC
:10348000219120532A30C0F31EF4909581959F4FCF
:1034900008957AE0979F902D879F802D910D11249C
:1034A00008950E94641A0C94D51A0E94C71A38F025
:1034B0000E94CE1A20F0952311F00C94BE1A0C94A1
:1034C000C41A11240C94091B0E94E61A70F3959FEC
:1034D000C1F3950F50E0551F629FF001729FBB270B
:1034E000F00DB11D639FAA27F00DB11DAA1F649FA7
:1034F0006627B00DA11D661F829F2227B00DA11D5A
:10350000621F739FB00DA11D621F839FA00D611DDF
:10351000221F749F3327A00D611D231F849F600D00
:10352000211D822F762F6A2F11249F5750409AF029
:10353000F1F088234AF0EE0FFF1FBB1F661F771FB5
:10354000881F91505040A9F79E3F510580F00C9480
:10355000BE1A0C94091B5F3FE4F3983ED4F38695A2
:1035600077956795B795F795E7959F5FC1F7FE2B20
:10357000880F911D9695879597F9089597F99F67FC
:1035800080E870E060E008959FEF80EC08950024EB
:103590000A941616170618060906089500240A94B8
:1035A00012161306140605060895092E0394000C3E
:1035B00011F4882352F0BB0F40F4BF2B11F460FFCD
:1035C00004C06F5F7F4F8F4F9F4F089557FD9058F6
:1035D000440F551F59F05F3F71F04795880F97FBD7
:1035E000991F61F09F3F79F0879508951216130691
:1035F0001406551FF2CF4695F1DF08C016161706C0
:103600001806991FF1CF86957105610508940895F4
:10361000E894BB2766277727CB0197F90895F99996
:10362000FECF92BD81BDF89A992780B50895262FC7
:10363000F999FECF1FBA92BD81BD20BD0FB6F89497
:10364000FA9AF99A0FBE019608952F923F924F92DF
:103650005F926F927F928F929F92AF92BF92CF9222
:10366000DF92EF92FF920F931F93CF93DF93CDB72B
:10367000DEB7CA1BDB0B0FB6F894DEBF0FBECDBFA3
:1036800009942A88398848885F846E847D848C8474
:103690009B84AA84B984C884DF80EE80FD800C817D
:1036A0001B81AA81B981CE0FD11D0FB6F894DEBF60
:1036B0000FBECDBFED010895A29FB001B39FC00121
:1036C000A39F700D811D1124911DB29F700D811D4E
:1036D0001124911D08955058BB27AA270E94831BCF
:1036E0000C94D51A0E94C71A38F00E94CE1A20F006
:1036F00039F49F3F19F426F40C94C41A0EF4E095A3
:10370000E7FB0C94BE1AE92F0E94E61A58F3BA1789
:10371000620773078407950720F079F4A6F50C94E7
:10372000081B0EF4E0950B2EBA2FA02D0B01B9014A
:1037300090010C01CA01A0011124FF27591B99F027
:10374000593F50F4503E68F11A16F040A22F232F33
:10375000342F4427585FF3CF469537952795A79583
:10376000F0405395C9F77EF41F16BA0B620B730B2A
:10377000840BBAF09150A1F0FF0FBB1F661F771F9B
:10378000881FC2F70EC0BA0F621F731F841F48F450
:10379000879577956795B795F7959E3F08F0B0CFD9
:1037A0009395880F08F09927EE0F979587950895C0
:1037B0000E94EC1B0C94D51A0E94CE1A58F00E945D
:1037C000C71A40F029F45F3F29F00C94BE1A51113A
:1037D0000C94091B0C94C41A0E94E61A68F39923EE
:1037E000B1F3552391F3951B550BBB27AA276217FD
:1037F0007307840738F09F5F5F4F220F331F441F0A
:10380000AA1FA9F335D00E2E3AF0E0E832D091503D
:103810005040E695001CCAF72BD0FE2F29D0660F2A
:10382000771F881FBB1F261737074807AB07B0E86D
:1038300009F0BB0B802DBF01FF2793585F4F3AF073
:103840009E3F510578F00C94BE1A0C94091B5F3F03
:10385000E4F3983ED4F3869577956795B795F795F9
:103860009F5FC9F7880F911D9695879597F90895E1
:10387000E1E0660F771F881FBB1F6217730784077D
:10388000BA0720F0621B730B840BBA0BEE1F88F78C
:10389000E09508950E94EE1A88F09F5798F0B92F8E
:1038A0009927B751B0F0E1F0660F771F881F991F75
:1038B0001AF0BA95C9F714C0B13091F00E94081BF4
:1038C000B1E008950C94081B672F782F8827B85F04
:1038D00039F0B93FCCF3869577956795B395D9F7CD
:1038E0003EF490958095709561957F4F8F4F9F4FD7
:1038F00008950E94B91C90F09F3748F4911116F07A
:103900000C94091B60E070E080E89FEB089526F4BA
:103910001B16611D711D811D0C94901C0C94AB1C19
:10392000882371F4772321F09850872B762F07C0D6
:10393000662311F499270DC09051862B70E060E04A
:103940002AF09A95660F771F881FDAF7880F9695E9
:10395000879597F908959F3F31F0915020F487950E
:1039600077956795B795880F911D9695879597F9E7
:1039700008950E94EE1AA0F0BEE7B91788F4BB279D
:103980009F3860F41616B11D672F782F8827985F2F
:10399000F7CF869577956795B11D93959639C8F3BE
:1039A0000895A1E21A2EAA1BBB1BFD010DC0AA1F80
:1039B000BB1FEE1FFF1FA217B307E407F50720F098
:1039C000A21BB30BE40BF50B661F771F881F991F13
:1039D0001A9469F760957095809590959B01AC015C
:1039E000BD01CF010895052E97FB1EF400940E949F
:1039F0000A1D57FD07D00E94D11C07FC03D04EF4CE
:103A00000C940A1D50954095309521953F4F4F4F8E
:103A10005F4F089590958095709561957F4F8F4F7A
:103A20009F4F0895EE0FFF1F0590F491E02D09942C
:103A30000F931F93CF93DF938230910510F482E0B0
:103A400090E0E091C404F091C50420E030E0A0E0F3
:103A5000B0E0309719F140815181028113814817FC
:103A60005907C8F08417950769F4109731F012963A
:103A70000C93129713961C9327C00093C4041093C1
:103A8000C50422C02115310519F04217530718F457
:103A90009A01BD01EF01DF01F801DBCF21153105EE
:103AA000F9F0281B390B2430310580F48A819B8181
:103AB0006115710521F0FB019383828304C090930B
:103AC000C5048093C404FE01329644C0FE01E20F97
:103AD000F31F8193919322503109398328833AC08F
:103AE0002091C2043091C304232B41F4209125017D
:103AF000309126013093C3042093C2042091230106
:103B0000309124012115310541F42DB73EB7409184
:103B1000270150912801241B350BE091C204F0913C
:103B2000C304E217F307A0F42E1B3F0B2817390735
:103B300078F0AC014E5F5F4F2417350748F04E0F09
:103B40005F1F5093C3044093C2048193919302C0BA
:103B5000E0E0F0E0CF01DF91CF911F910F91089548
:103B6000CF93DF93009709F481C0FC013297138251
:103B70001282A091C404B091C504109781F42081F1
:103B80003181820F931F2091C2043091C304281702
:103B9000390751F5F093C304E093C20467C0ED0107
:103BA00020E030E0CE17DF0740F44A815B819E01C0
:103BB00041155105F1F0EA01F5CFD383C28340816D
:103BC0005181840F951FC817D90759F488819981AD
:103BD000840F951F0296918380838A819B819383B2
:103BE00082832115310529F4F093C504E093C404C0
:103BF0003DC0E901FB83EA8349915991C40FD51F68
:103C0000EC17FD0761F480819181840F951F029666
:103C1000E90199838883828193819B838A83E0E091
:103C2000F0E012968D919C911397009719F0FD0189
:103C3000DC01F7CF8D919C9111979D012E5F3F4F35
:103C4000820F931F2091C2043091C30428173907B3
:103C500069F4309729F41092C5041092C40402C08C
:103C600013821282B093C304A093C204DF91CF9158
:103C70000895A0E0B0E0EFE3FEE10C94291BEC0115
:103C8000009721F4CB010E94181DB4C0FC01E60F7F
:103C9000F71F9C0122503109E217F30708F4A8C06E
:103CA000D9010D911C91119706171707B0F0053037
:103CB000110508F49BC0C80104978617970708F4FC
:103CC00095C002501109061B170B019311936D93B8
:103CD0007C93CF010E94B01D89C05B01A01AB10A7C
:103CE0004C01800E911EA091C404B091C504612CBA
:103CF000712CE12CF12C109709F446C08D919C9108
:103D00001197A815B905B1F56C0142E0C40ED11C9C
:103D1000CA14DB0478F14C018A189B08640142E064
:103D2000C40ED11C1296BC9012971396AC91B5E0BC
:103D3000CB16D10440F0B282A38391828082D90154
:103D40006D937C9309C00E5F1F4F800F911FF90187
:103D500091838083EB2DFA2FE114F10431F0D70128
:103D60001396FC93EE93129741C0F093C504E09331
:103D7000C4043CC06816790608F43C017D01129623
:103D80000D90BC91A02DB7CF8091C2049091C30437
:103D900088169906E1F466167706C8F48091230127
:103DA00090912401009741F48DB79EB7409127016F
:103DB00050912801841B950BE817F907C8F4F0937C
:103DC000C304E093C204F901718360830FC0CB0187
:103DD0000E94181D7C01009759F0A801BE010E94A5
:103DE0000C1FCE010E94B01DC70104C0CE0102C04D
:103DF00080E090E0CDB7DEB7EEE00C94451B81E0AB
:103E000090E0F8940C943F1F9111089581548A51C9
:103E100008F4805E855A0895FB01DC0102C0019020
:103E20000D9241505040D8F70895FC0181918617BA
:103E300021F08823D9F7992708953197CF01089564
:103E4000FB01DC018D91019080190110D9F3990BD0
:103E50000895FB01DC0101900D920020E1F7089527
:103E6000FB01DC014150504048F001900D920020D0
:103E7000C9F701C01D9241505040E0F70895F894F1
:023E8000FFCF72
:103E820000E1000000000000FFFFFFFFFF00000054
:103E9200002A66744475696E6F000000000000001D
:103EA2000000000000C604800066744475696E6FED
:103EB20000000363636363026363636363636300BA
:103EC20063636301000263630100C180810000003B
:103ED200800140040220081000000000B605DC0644
:103EE2006107A806CC05650771070000000073068C
:103EF2004606A3061A063E062A061B066C65645F82
:103F020073657400312E322E310066746475696EE9
:103F12006F5F69645F736574006932635F616464D3
:103F2200725F736574000D0A006D6F746F725F7358
:103F320065740070776D5F7365740066746475698B
:103F42006E6F5F6469726563745F6765745F7665DF
:103F52007273696F6E0066746475696E6F5F69640F
:103F62005F676574006932635F616464725F67658D
:103F720074006D6F746F725F636F756E746572003B
:103F82006D6F746F725F636F756E7465725F61637C
:103F920074697665006D6F746F725F636F756E74AE
:103FA20065725F7365745F6272616B65006F7574D1
:103FB2007075745F73657400696E7075745F736594
:103FC200745F6D6F646500696E7075745F676574A8
:103FD20000636F756E7465725F7365745F6D6F6495
:103FE2006500636F756E7465725F67657400636FF9
:103FF200756E7465725F636C65617200636F756E76
:104002007465725F6765745F737461746500756C63
:10401200747261736F6E69635F656E61626C650075
:10402200756C747261736F6E69635F67657400703B
:08403200776D5F68616C74009A
:00000001FF
