:100000000C94D8040C9400050C9400050C941D0C61
:100010000C94F80B0C9400050C9400050C9400054E
:100020000C9400050C94C20B0C94CF070C9446085A
:100030000C9400050C9400050C9400050C9400052C
:100040000C9400050C9400050C9400050C9400051C
:100050000C9400050C9400050C9400050C944612B9
:100060000C94A20C0C94790C0C9400050C940005D3
:100070000C9400050C94E30C0C9400050C94000502
:100080000C94420C0C9400050C9400050C94000593
:100090000C94940A0C9400050C9400050C94000533
:1000A0000C9400050C9400050C9400050411071134
:1000B000F610FA10FE102811281128110B110F113B
:1000C000131119111D112811231100000000240023
:1000D00027002A002D003000080B00020202010058
:1000E000090400000102020000052400100105249B
:1000F000010101042402060524060001070581030D
:1001000010004009040100020A0000000705020275
:1001100040000007058302400000040309041201A7
:100120000002EF020140401C3805000101020301FA
:1001300054696C6C204861726261756D006674442C
:1001400075696E6F0000000000250028002B002E4E
:100150000031000404040404030405020202020442
:100160000302020202060606060606040402020252
:1001700004040408020110408040102040804080A8
:10018000080204018040201002011080102040402D
:10019000200000000200090F0000030401000C0011
:1001A000000000000000000000000000000000004F
:1001B000000006000C0013001900200026002D008E
:1001C00034003A00410048004E0055005C006300D6
:1001D0006A00700077007E0085008C0093009A0012
:1001E000A100A800AF00B700BE00C500CC00D4003D
:1001F000DB00E200EA00F100F800000107010F0156
:1002000017011E0126012E0135013D0145014D0159
:1002100054015C0164016C0174017C0184018C0156
:1002200094019D01A501AD01B501BE01C601CF013B
:10023000D701DF01E801F101F90102020A0213020C
:100240001C0225022E0236023F02480251025A02C7
:1002500064026D0276027F02880292029B02A5026E
:10026000AE02B802C102CB02D402DE02E802F20200
:10027000FB0205030F03190323032E033803420374
:100280004C03560361036B03760380038B039503D2
:10029000A003AB03B603C103CB03D603E103ED0315
:1002A000F80303040E041A04250430043C04480433
:1002B00053045F046B04760482048E049A04A6043B
:1002C000B304BF04CB04D804E404F104FD040A051C
:1002D0001705230530053D054A05570564057205D8
:1002E0007F058C059A05A805B505C305D105DF0571
:1002F000ED05FB05090617062506340642065106DC
:1003000060066E067D068C069B06AA06BA06C9061E
:10031000D806E806F706070717072707370747072E
:1003200057076707780788079907AA07BB07CC070D
:10033000DD07EE07FF0711082208340846085808B1
:100340006A087C088E08A108B308C608D908EB081B
:10035000FE081209250938094C0960097409880941
:100360009C09B009C509D909EE09030A180A2D0A22
:10037000420A580A6E0A840A9A0AB00AC60ADD0AB4
:10038000F30A0A0B210B380B500B670B7F0B970BF3
:10039000AF0BC80BE00BF90B120C2B0C440C5E0CD2
:1003A000770C910CAB0CC60CE00CFB0C160D320D4F
:1003B0004D0D690D850DA10DBD0DDA0DF70D140E56
:1003C000310E4F0E6D0E8B0EAA0EC80EE70E070FE4
:1003D000260F460F660F870FA70FC90FEA0F0C10E5
:1003E0002D10501072109510B910DC10001124114E
:1003F00049116E119311B911DF1106122D12541209
:100400007C12A412CC12F5121E13481372139D1302
:10041000C813F3131F144C147914A614D414021522
:10042000311561159115C115F21524165616891648
:10043000BC16F016241759178F17C517FC17341858
:100440006C18A518DF181A1955199119CD190B1A1E
:10045000491A881AC71A081B491B8C1BCF1B131C6F
:10046000581C9E1CE41C2C1D751DBF1D091E551E0D
:10047000A21EF01E3F1F8F1FE11F33208720DC20AC
:1004800032218A21E3213D229922F6225423B423EA
:1004900016247924DD244425AC2515268126EE2654
:1004A0005D27CE274128B6282D29A629212A9E2A54
:1004B0001E2BA02B252CAC2C352DC12D502EE12E22
:1004C000762F0D30A7304531E53189323133DC33B9
:1004D0008A343C35F235AC366B372D38F438BF39B9
:1004E000903A653B3F3C1E3D033EED3EDD3FD44030
:1004F000D041D342DD43EE44074627474F487F496A
:10050000B84AFA4B454D9A4EFA4F6451DA525B5451
:10051000E95584572C59E35AA95C7F5E65605D629A
:1005200068648666B968026B626DDB6F6E721D75FA
:10053000E977D67AE47D16817084F287A28B818F69
:100540009493DF97679C31A142A6A1AB56B168B7DF
:10055000E1BDCBC432CC24D4B2DCECE5EAEFC3FA83
:10056000FFFFFFFFFFFFFFFFFFFFFFFFFFFFFFFF9B
:10057000FFFFFFFFFFFFFFFFFFFFFFFFFFFFFFFF8B
:10058000FFFFFFFFFFFFFFFFFFFFFFFFFFFFFFFF7B
:10059000FFFFFFFFFFFFFFFFFFFFFFFFFFFFFFFF6B
:1009A000FFFFFFFFFFFFFFFFFFFFFFFFFFFF9119AB
:1009B00011241FBECFEFDAE0DEBFCDBF24E0A0EBF5
:1009C000B2E001C01D92AE3BB207E1F712E0A0E039
:1009D000B1E0ECE3FEE302C005900D92A03BB1074D
:1009E000D9F714E0C8EDD4E004C02197FE010E94BD
:1009F000EF1CC73DD107C9F70E9490120C941C1F31
:100A00000C94000040911D0350911E0320911B0384
:100A100030911C0342175307B4F49091E80095708D
:100A2000E1F39091E80092FD19C08093F10080916C
:100A30001D0390911E0301968F739927892B19F43A
:100A40008EEF8093E80080911D0390911E03019624
:100A500090931E0380931D0381E0089580E0089524
:100A6000DF92EF92FF920F931F93CF93DF93D82ED5
:100A7000F92EE42E062F10E0C8010196880F0E947F
:100A8000020583E00E940205CD2DDF2D0C0F1D1FF6
:100A9000C017D10789F0E7FE03C0FE01849101C0B1
:100AA00088810E940205F82E80E00E9402058F21B5
:100AB00021968111EDCF01C081E0DF91CF911F918F
:100AC0000F91FF90EF90DF900895DF92EF92FF92E9
:100AD0000F931F93CF93DF93D82E8A017B01E40EEF
:100AE000F51EEB01CE15DF0571F0D7FE03C0FE0148
:100AF000849101C088810E94020521968111F2CF64
:100B00008FEF9FEF01C0C801DF91CF911F910F912F
:100B1000FF90EF90DF900895CF92DF92EF92FF92D7
:100B20000F931F93CF93DF936C017A018B01C0E089
:100B3000D0E0CE15DF0581F0D8016D918D01D60191
:100B4000ED91FC910190F081E02DC6010995892B72
:100B500011F02196EECF7E01C701DF91CF911F9159
:100B60000F91FF90EF90DF90CF900895CF93DF9398
:100B70001F92CDB7DEB76983DC01ED91FC91028055
:100B8000F381E02D41E050E0BE016F5F7F4F09959A
:100B90000F90DF91CF910895FC018485958597FD95
:100BA0000BC09FB7F89482E08093E9008091F20037
:100BB0009FBF90E0019608959FB7F89482E08093DC
:100BC000E9008091F2009FBF90E0089585ED809349
:100BD000BC008091BC0084FDFCCF10926B03089593
:100BE0004091F802262F30E0240F311D21323105CB
:100BF000DCF420916B032430C9F4FC0180E090E028
:100C0000861758F43091F8022191DC01A852BD4FAB
:100C1000A30FB11D2C930196F3CF8091F802680FBA
:100C20006093F80280E0089581E0089582E00895DD
:100C3000089508950895E091240380912303E8170F
:100C400030F4F0E0EB5DFC4F808190E008958FEF91
:100C50009FEF08959091240380912303981750F4F7
:100C6000E92FF0E0EB5DFC4F208130E09F5F909337
:100C7000240302C02FEF3FEFC901089580912303A1
:100C800090E020912403821B91090895CF92DF9276
:100C9000EF92FF920F931F93CF93DF937C01CB01D1
:100CA0008A0120916C03222389F0EB016B01C40EB1
:100CB000D51ECC15DD0569F06991D701ED91FC9148
:100CC0000190F081E02DC7010995F3CF642F0E94B8
:100CD000F005C801DF91CF911F910F91FF90EF9028
:100CE000DF90CF900895CF93DF931F92CDB7DEB7FB
:100CF000698320916C032223D1F020918F0320324D
:100D000040F021E030E0FC013383228380E090E07A
:100D100015C080916D03E82FF0E0E259FC4F9981F6
:100D200090838F5F80936D0380938F0305C061E094
:100D3000CE0101960E94F00581E090E00F90DF91D6
:100D4000CF910895089580E090E008950E94DC1E00
:100D50000C94250E0F931F93CF93DF931F92CDB763
:100D6000DEB782E0898342E450E068ED70E080E81D
:100D70000E9465050E94C510DC0112960D911C9120
:100D800013970115110589F0D801ED91FC910280AE
:100D9000F381E02DBE016F5F7F4FC801099597FD7C
:100DA00004C0F80100851185ECCF89810F90DF9197
:100DB000CF911F910F9108958F929F92AF92BF9202
:100DC000CF92DF92EF92FF920F931F93CF93DF9317
:100DD0006C017B018A0180910701882309F45BC0C3
:100DE00080912203882309F456C08091B00280FFCD
:100DF00005C08091E00082608093E000E801B12CA2
:100E00008AEFA82E93E0892E2AE3922E209711F4E0
:100E1000BB20D9F10E94B41081110AC0AA94AA2063
:100E2000D1F161E070E080E090E00E943D11EECFF2
:100E3000282F30E0C217D3070CF48C2F9FB7F894FB
:100E40008092E9002091E80025FF1DC0282F30E0A6
:100E5000C21BD30BF701815020F041914093F10068
:100E6000FACFE20EF31EBB2019F09092E8000AC000
:100E70008091E80085FD07C09092E800BB24B39400
:100E8000209709F0B12C9FBFC1CF84E68093200347
:100E90001016110644F081E090E0F60193838283FE
:100EA00080E090E001C0C801DF91CF911F910F91C8
:100EB000FF90EF90DF90CF90BF90AF909F908F907A
:100EC00008950E94B41090E00895FC0184859585F2
:100ED00097FD05C02FEF3FEF3587248708950C94C9
:100EE0006910CF93DF93EC018C859D8597FF04C03B
:100EF0000E9469109D878C878C859D85DF91CF919D
:100F00000895EF92FF920F931F93CF93DF93EC011D
:100F1000198218821B821A821D821C82611571053A
:100F2000B9F17B01FB0101900020E9F731978F01B6
:100F3000061B170BB8016F5F7F4F80E090E00E94A7
:100F4000161E009759F0998388831B830A832C818E
:100F50003D81232B81F4FC0110820DC08881998191
:100F6000009711F00E948D1D198218821D821C822B
:100F70001B821A820DC01D830C83B7018881998161
:100F8000DF91CF911F910F91FF90EF900C94061F6E
:100F9000DF91CF911F910F91FF90EF9008951F92D5
:100FA0000F920FB60F9211242F933F934F935F939D
:100FB0006F937F938F939F93AF93BF93CF93EF9351
:100FC000FF93C091E1008091E100837F8093E10075
:100FD000C3FF0FC01092E90081E08093EB001092F4
:100FE000EC0082E38093ED001092220388E080936E
:100FF000F000C2FF14C00E94250E809120038823B8
:1010000029F0809120038150809320038091210357
:10101000882329F080912103815080932103C4FF0C
:1010200010C08091E2008E7E81608093E20080910A
:10103000E1008F7E8093E1008091B0028E7E80611E
:1010400011C0C0FF11C08091E2008E7E806180934C
:10105000E2008091E1008E7E8093E1008091B002F9
:101060008E7E81608093B002FF91EF91CF91BF910E
:10107000AF919F918F917F916F915F914F913F9130
:101080002F910F900FBE0F901F9018951F920F92E7
:101090000FB60F921124CF92DF92EF92FF920F932F
:1010A0001F932F933F934F935F936F937F938F93F0
:1010B0009F93AF93BF93EF93FF93CF93DF93CDB7FE
:1010C000DEB76C97DEBFCDBF1092E9008091E800DB
:1010D00083FF0BC289E0FE017596EE2EDF2E815054
:1010E00029F09091F10090833196F9CF84E68093B6
:1010F000210382EF8093E8008D8987FF05C09091DE
:10110000E80090FFFCCF03C09EEF9093E800982F7B
:10111000907609F0C5C09E894F89588D2F89F88C2B
:1011200091110CC0803829F48091B1028093F100B4
:1011300002C01092F1001092F1004BC1913051F4B5
:10114000811147C14130510509F043C18091B1027D
:101150008D7F0BC0933061F481113BC1413051054B
:1011600009F037C18091B10282608093B10231C130
:10117000953049F48091E80080FFFCCF822F806891
:101180008093E30026C1963009F05DC00B8D1C8D65
:1011900022E01092E90010921E0310921D03F21239
:1011A00032C010921C0310921B030E94AA0699E001
:1011B000BE016F5F7F4FDB01E92F1D92EA95E9F7D2
:1011C0009983FA8291E09E8390EA98879AEF9987B3
:1011D00020911D0330911E03275F3F4F3C832B83DB
:1011E0008D831092E90010921E0310921D0310933C
:1011F0001C0300931B0349E050E080E00E9465055A
:101200000E94AA06E6C010931C0300931B030E94D1
:10121000C510DC0112960D911C9113970115110553
:1012200009F4C1C0D801ED91FC910480F581E02D55
:101230006E2D7D2DC8010995009709F0CEC0F801EB
:1012400000851185EBCF973009F44CC1983021F41B
:1012500081E08093F100BDC0993009F0BAC083707D
:1012600009F040C1EAE4F1E081E031E096E3208159
:10127000211109C08EE78093EA001092EA008F895D
:1012800080932203A6C08093E9003093EB00219164
:101290002093EC009093ED008F5F873041F7EACF09
:1012A0008B8D9C8D1092E90010921E0310921D03ED
:1012B00090931C0380931B03898D81115BC08E89E1
:1012C0009D89913A49F4813209F00CC147E050E020
:1012D00060E071E080E0C2C0913209F003C1833266
:1012E00069F48F89988DA0E0B0E080930901909314
:1012F0000A01A0930B01B0930C016BC08032A9F4DA
:101300008091E80082FFFCCF88E0E0E0F1E08150CE
:1013100029F09091F10090833196F9CF84E6809383
:1013200021038BEF8093E80054C0823209F051C052
:101330008F8980930701EEEFFFE7859194918B3FB2
:101340009C4D19F0E0E0F8E002C0EEEFFAE0809189
:10135000000190910101A0910201B0910301803B35
:101360009440A105B10509F09DC08091070180FF5F
:1013700078C098C00E94C510FC010281138101153C
:10138000110509F4AFC0D801ED91FC910190F081F5
:10139000E02D6E2D7D2DC801099581111AC0F8012F
:1013A00000851185ECCFF1E0FF1609F44EC0F3E0A3
:1013B000FF1298C08F89882309F44AC0823089F4CB
:1013C00040E867E08DE391E00E943005882309F44E
:1013D00089C08EEF8093E80088C018161906CCF3F8
:1013E00081C0813029F440E86CE080E391E0ECCFEB
:1013F000833009F077C00E94C510DC011296ED9091
:10140000FC9013978E010F5F1F4F6801E114F104E8
:1014100079F0D701ED91FC910680F781E02DB801BC
:10142000C7010995080F111DF701E084F184EECF83
:10143000D8011C92F60101900020E9F73197BF0115
:101440006C197D0940E0C601BFCF6EE171E002C0BA
:101450006AE171E0FB01449150E080E80E9465057B
:10146000B8CFEE3F2AE0F20751F0808191818737B3
:10147000A7E79A0721F09093FF0A8093FE0A87E777
:1014800097E7918380838091600080931F039BE0A6
:1014900088E10FB6F894A895809360000FBE9093F2
:1014A000600097CF808191818737974709F091CF6E
:1014B000A8958091600088618093600080911F03EF
:1014C00080936000EE3FBAE0FB0739F08091FE0A9E
:1014D0009091FF0A918380837CCF1092FF0A109233
:1014E000FE0A77CF81E28093EB006C960FB6F894FA
:1014F000DEBF0FBECDBFDF91CF91FF91EF91BF91C6
:10150000AF919F918F917F916F915F914F913F919B
:101510002F911F910F91FF90EF90DF90CF900F9040
:101520000FBE0F901F9018951F920F920FB60F923B
:1015300011242F933F934F935F936F937F938F93D8
:101540009F93AF93BF93EF93FF938091B900887FF0
:10155000803609F49CC068F5883209F45BC090F4C9
:10156000803109F454C038F4882309F4F6C0883077
:1015700009F44DC0F6C0883109F44CC0803209F43A
:101580005DC0EFC0803409F468C048F4803309F4CA
:1015900055C0883309F0E5C080936903D8C0803511
:1015A00009F44FC0883509F45DC0883409F0D9C00A
:1015B000D6C0883909F4C7C0A8F4883709F467C0D1
:1015C00038F4883609F463C0803709F460C0C9C0B4
:1015D000883809F4B8C0803909F45FC0803809F050
:1015E000C0C05BC0803B09F486C038F4803A09F47F
:1015F00066C0883A09F47FC0B4C0803C09F4A7C033
:10160000883C09F4A4C0883B09F48AC0AAC0809130
:10161000460310C09091680380916703981770F596
:10162000E091680381E08E0F80936803F0E0E95B4E
:10163000FC4F80818093BB0085EC86C0809369035A
:101640008EC0E091680381E08E0F809368038091E3
:10165000BB00F0E0E95BFC4F8083909168038091D0
:1016600067036EC0E091680381E08E0F809368038A
:101670008091BB00F0E0E95BFC4F808380916A03BE
:1016800081116DC081E08093450384EA61C083E0ED
:1016900080936B0310921A03CFCF80911A0380328C
:1016A00008F051C0E0911A0381E08E0F80931A0375
:1016B0008091BB00F0E0E650FD4F8083BDCF85EC0C
:1016C0008093BC0010926B0380911A03803230F437
:1016D000E0911A03F0E0E650FD4F108260911A038A
:1016E00070E0E091B202F091B3028AEF92E00995C6
:1016F00010921A0336C084E080936B031092F902B3
:101700001092F802E091B402F091B502099580912F
:10171000F802811105C081E08093F8021092D8028E
:10172000E091F90281E08E0F8093F902F0E0E85237
:10173000FD4F80818093BB009091F9028091F80267
:10174000981708F479CF85E88093BC000AC085EC2F
:101750008093BC0010926B0304C0109269030E9436
:10176000E605FF91EF91BF91AF919F918F917F918E
:101770006F915F914F913F912F910F900FBE0F90FE
:101780001F9018951F920F920FB60F9211242F934E
:101790003F934F935F936F937F938F939F93AF93F9
:1017A000BF93CF93DF93EF93FF93D3B1C091080121
:1017B000CD27C5FF03C082E00E94A210C6FF03C070
:1017C00083E00E94A210D0930801FF91EF91DF9176
:1017D000CF91BF91AF919F918F917F916F915F91C9
:1017E0004F913F912F910F900FBE0F901F90189522
:1017F0001F920F920FB60F9211242F933F934F9386
:101800005F936F937F938F939F93AF93BF93EF9368
:10181000FF9381E00E94A210FF91EF91BF91AF91E1
:101820009F918F917F916F915F914F913F912F91F8
:101830000F900FBE0F901F9018951F920F920FB62A
:101840000F9211242F933F934F935F936F937F9346
:101850008F939F93AF93BF93EF93FF9380E00E948A
:10186000A210FF91EF91BF91AF919F918F917F91C6
:101870006F915F914F913F912F910F900FBE0F90FD
:101880001F9018951F920F920FB60F9211248F93ED
:101890009F93809178048823E1F08091770491E010
:1018A000980F90937704843029F48FEF80937A0413
:1018B00080937904109278048091C9008F7E809380
:1018C000C900729A8FE094EF9093950080939400F2
:1018D00009C081E08093780472988091C90080618A
:1018E0008093C9009F918F910F900FBE0F901F9012
:1018F00018951F920F920FB60F9211248F939F93FA
:101900008091CE0090917804913059F4982F987F6F
:10191000903819F487708093790482E0809378047A
:101920000AC0923041F487FF80937A0483E0809369
:101930007804109277049F918F910F900FBE0F90B3
:101940001F9018951F920F920FB60F9211242F938C
:101950003F934F935F938F939F93EF93FF93809168
:10196000F403982F937081F4289A2898E82FE6952D
:10197000E695F0E0EE0FFF1FE052FC4F45895689D7
:10198000509376044093750480FF0CC081FB22279E
:1019900020F930E020523C4FF901EB56FF4F908187
:1019A0009EBD01C01EBC8F5F8093F403FF91EF9139
:1019B0009F918F915F914F913F912F910F900FBE0B
:1019C0000F901F9018951F920F920FB60F9211242F
:1019D0002F933F934F935F936F937F938F939F9337
:1019E000AF93BF93EF93FF938091E00380FF1AC002
:1019F000482F50E055954795209178003091790017
:101A0000FA01EE0FFF1FE052FC4F3283218321E0E9
:101A100030E001C0220F4A95EAF79091F303292B99
:101A20002093F3038F5F982F9F709093E003837050
:101A300029F4892F869586950E94750F8091E00381
:101A400080FD03C00E94710D05C080917A00806402
:101A500080937A00FF91EF91BF91AF919F918F9109
:101A60007F916F915F914F913F912F910F900FBE9A
:101A70000F901F90189583FF02C0469A08954698CC
:101A800080FF02C0889A01C0889881FF02C0899AAD
:101A900001C0899882FF02C05D9A08955D980895FB
:101AA000FF920F931F93CF93DF930DE011E0C0E0FF
:101AB000D0E0F801F1908F01CE010E94EC1AF816E7
:101AC00021F06F2DCE010E94F41A2196C631D10566
:101AD00081F78DE091E0DF91CF911F910F91FF9001
:101AE00008958091E00390E0959587952091F1030A
:101AF00030E0082E02C0359527950A94E2F720FFC2
:101B00008FEF0E943B0D2091E003822F90E095958E
:101B10008795837023FD06C0846480937C001092B7
:101B20007B0006C0806480937C0080E280937B0011
:101B300080917A00806480937A000895282F3091F4
:101B40008F03313208F04AC080916B038111FCCFC2
:101B500090918E0342E040936B0320936A032FEF32
:101B6000209369031092680330936703EEE6F3E075
:101B7000A7E4B3E020E0321721F041914D932F5FAD
:101B8000FACF1092460320914603990F922B90931F
:101B9000460390914503913061F410924503909172
:101BA00046039093BB009091BC0093FDF8CF95EC59
:101BB00001C095EE9093BC0090916B039230E1F3DD
:101BC000909169039F3F79F080916903803241F0E1
:101BD00080916903803331F084E005C081E003C067
:101BE00082E001C083E010926D0310928F03109287
:101BF0006C0308951F93CF93DF93162FC6E9D4E0AB
:101C0000988121E020936C0390938E0310926D03D2
:101C100010928F03A981BA81ED91FC9111970190E7
:101C2000F081E02D682FCD01099589819A81DC0131
:101C3000ED91FC910190F081E02D612F099581E0FB
:101C4000DF91CF911F910C949E0D83E08093E9006A
:101C50008091F200882319F08AE38093E8000895C8
:101C6000009769F0FC0101900020E9F73197AF017E
:101C7000481B590BBC0180E993E00C94DC0680E022
:101C800090E008958F929F92AF92BF920F931F930F
:101C9000CF93DF93CDB7DEB7A1970FB6F894DEBF31
:101CA0000FBECDBF19A2423008F44AE08E010F5D8D
:101CB0001F4F842E912CA12CB12CA50194010E94C0
:101CC000AE1CE62FB901CA0101501109EA3014F423
:101CD000E05D01C0E95CD801EC93232B242B252B7C
:101CE00061F7C8010E94300EA1960FB6F894DEBFCE
:101CF0000FBECDBFDF91CF911F910F91BF90AF90DD
:101D00009F908F900895CF92DF92EF92FF92CF93A2
:101D1000DF936C01990FEE08FF08F7FE13C06DE228
:101D200080E993E00E94B605EC0166277727CB0196
:101D30006C197D098E099F094AE00E94420EC80F66
:101D4000D91F06C04AE0C701B6010E94420EEC014D
:101D500086EA91E00E94300E8C0F9D1FDF91CF919B
:101D6000FF90EF90DF90CF900895FC0124813581A2
:101D7000232B31F421E061157105A1F0FB0108C0AE
:101D8000FC01808191816115710531F421E0FC0134
:101D90008081882339F005C00E94FD1E21E0892B37
:101DA00009F020E0822F0895811103C099B1947049
:101DB0000BC0813019F499B1987006C093B182308C
:101DC00011F4907201C0907481E0911101C080E023
:101DD0000895CF92DF92EF92FF920F931F93282FD7
:101DE000237030E0F901613051F4EC5AFE4FC080AD
:101DF000D12CE12CF12CF901E05BFE4F0BC06230DD
:101E000071F4E05BFE4FC080D12CE12CF12CF90184
:101E1000EC5AFE4F008110E020E030E00EC0EC5A9A
:101E2000FE4FD901A05BBE4F00819C91092B10E0B1
:101E300020E030E0C12CD12C760182FD08C0FE2CC0
:101E4000ED2CDC2CCC24322F212F102F0027E0EE9C
:101E5000F3E050E0B601602B712B60957095009512
:101E6000109585899689541728F48C299D298023FB
:101E7000912302C086239723968B858B5F5F3296D2
:101E8000503479F71F910F91FF90EF90DF90CF9032
:101E90000895CF93DF93D42FC82FCC0F613079F002
:101EA00030F0623099F06330E9F462E010C040E055
:101EB00060E08C2F0E94E90E40E060E00DC062E01F
:101EC0008C2F0E94E90E4D2F61E006C061E08C2F3F
:101ED0000E94E90E4D2F62E081E08C0FDF91CF91DF
:101EE0000C94E90EDF91CF9108958F929F92AF925B
:101EF000BF92CF92DF92EF92FF920F931F93CF93F7
:101F0000C82F80918C040C2F10E090E00C2E02C0A2
:101F1000959587950A94E2F780FF3CC08C2F0E942C
:101F2000D40E8823B9F180918B0490E00C2E02C06E
:101F3000959587950A94E2F780FD2CC0F801EE0F85
:101F4000FF1FE357FB4F80819181019619F5209186
:101F50008C0480E190E00C2E02C0880F991F0A9437
:101F6000E2F730E082239323892B11F460E001C073
:101F700063E040E48C2F0E94490F20918C0481E0A3
:101F800090E00C2E01C0880F0A94EAF78095822316
:101F900080938C047801EE0CFF1CEE0CFF1CC70133
:101FA00085589B4F6C01FC0180819181A281B38196
:101FB000892B8A2B8B2B09F45EC00E942112F6011B
:101FC00080809180A280B380DC01CB0188199909BF
:101FD000AA09BB09893E9340A105B10508F44BC08D
:101FE0008C2F0E94D40E90918B04292F30E00C2E60
:101FF00002C0359527950A94E2F720FF0BC08111A6
:102000003AC021E030E001C0220FCA95EAF72095DE
:10201000292309C0882379F121E030E001C0220F93
:10202000CA95EAF7292B20938B042091950430E080
:10203000A801440F551F02C0359527954A95E2F730
:102040002370233039F0811103C0223069F402C0BB
:10205000213051F4000F111FF801E357FB4F80812D
:102060009181019691838083F701E558FB4F10829F
:10207000118212821382CF911F910F91FF90EF90E6
:10208000DF90CF90BF90AF909F908F900895CF93A7
:10209000DF93FC01C081D181209751F08881882392
:1020A00039F0082E000C990B0E94E11E8993F6CF9F
:1020B000DF91CF910895CF93DF930E94300EEC0112
:1020C00086EA91E00E94300E8C0F9D1FDF91CF9128
:1020D0000895CF93DF931F92CDB7DEB7809122038F
:1020E000811103C08FEF9FEF29C03FB7F89482E0C2
:1020F0008093E9008091F20090E01816190614F41C
:1021000081E090E0282FFE01319644E6215030F026
:10211000409321035091F1005193F8CF009721F0A3
:102120002091F200222331F03FBF0197D9F6898137
:1021300090E004C02BE62093E800F6CF0F90DF91EB
:10214000CF910895CF93C82F0E94750F0E9421123E
:1021500024E0C29FF0011124E558FB4F6083718396
:1021600082839383CF9108952FB7F89483E080936F
:10217000E9009091E800892F807295FF04C090914A
:10218000F20080E4891B2FBF089580919D04811186
:102190000DC082E08093990484E080939A041092A9
:1021A0009C0410929B0481E080939D0489E994E053
:1021B0000895362F90E0FC01EF56FE4F4491FC014C
:1021C000EE58FE4F2491FC01ED5AFE4F8491882376
:1021D00009F452C04423E1F150E0FA013197EF30A5
:1021E000F105B0F5EA5AFF4F0C94EF1C9091800076
:1021F0009F7707C0909180009F7D03C090918000E1
:10220000977F9093800024C094B59F7702C094B5C7
:102210009F7D94BD1DC0909190009F7707C09091C5
:1022200090009F7D03C090919000977F90939000C5
:102230000FC09091C0009F7703C09091C0009F7D18
:102240009093C00005C09091C200977F9093C20008
:10225000E82FF0E0EE0FFF1FEB5BFE4FA591B4916E
:102260009FB7F894311104C08C912095282302C0A7
:10227000EC912E2B2C939FBF08958F929F92AF923B
:10228000BF92CF92DF92EF92FF926B017C010E948E
:1022900021124B015C01C114D104E104F104F1F0FD
:1022A0000E942112DC01CB0188199909AA09BB09F6
:1022B000883E9340A105B10570F321E0C21AD10810
:1022C000E108F10888EE880E83E0981EA11CB11C7D
:1022D000C114D104E104F10419F7DDCFFF90EF90B0
:1022E000DF90CF90BF90AF909F908F900895CF9345
:1022F000DF9326E636E646E65FE30E942E1A9B0150
:10230000AC0160E27CEB8EEB95E40E94B51B20E013
:1023100030E040E85FE30E94481B20E030E040E00E
:102320005FE30E94491B0E94561C0E94271CD62F67
:102330008091960491E090936C0380938E031092A9
:102340006D0310928F038091970490919804DC01A3
:10235000ED91FC910190F081E02D60E0099581E024
:102360000E949E0D8091960490916B039111FCCF79
:1023700091E090936B0390936A032FEF209369038E
:10238000109268031092670390934603909146035E
:10239000880F892B8093460380914503813061F437
:1023A00010924503809146038093BB008091BC004E
:1023B00083FDF8CF85EC01C085EE8093BC00809151
:1023C0006B038130E1F380916803811103C0909128
:1023D000680301C091E0A7E4B3E0E5E2F3E080E048
:1023E000891721F02D9121938F5FFACF109224034A
:1023F000809323038091970490919804DC01ED91E0
:10240000FC910284F385E02D0995C82F682F6F7623
:10241000606180E00E94FA0D6D2F8EEF0E94FA0D30
:102420006C2F80E00E94FA0D65E070E080E090E0A3
:102430000E943D116C2F606A80E0DF91CF910C9477
:10244000FA0D3FB7F8948091B6049091B704A0912B
:10245000B804B091B90426B5A89B05C02F3F19F068
:102460000196A11DB11D3FBFBA2FA92F982F882714
:10247000820F911DA11DB11DBC01CD0142E0660F6F
:10248000771F881F991F4A95D1F708951F920F92C1
:102490000FB60F9211242F933F938F939F93AF9377
:1024A000BF938091B2049091B304A091B404B09111
:1024B000B5043091B10423E0230F2D3720F40196A9
:1024C000A11DB11D05C026E8230F0296A11DB11D57
:1024D0002093B1048093B2049093B304A093B40406
:1024E000B093B5048091B6049091B704A091B8045C
:1024F000B091B9040196A11DB11D8093B6049093CB
:10250000B704A093B804B093B904BF91AF919F9161
:102510008F913F912F910F900FBE0F901F901895A4
:10252000CF93DF93CDB7DEB72C970FB6F894DEBF0D
:102530000FBECDBF789484B5826084BD84B58160C0
:1025400084BD85B5826085BD85B5816085BD80917E
:102550006E00816080936E001092810080918100F6
:1025600082608093810080918100816080938100EE
:1025700080918000816080938000809191008260D2
:10258000809391008091910081608093910080916F
:1025900090008160809390008091C100846080935E
:1025A000C1008091C10082608093C1008091C10010
:1025B00081608093C1008091C30081608093C300DB
:1025C0008091C00082608093C0008091C2008160D1
:1025D0008093C20080917A00846080937A00809119
:1025E0007A00826080937A0080917A008160809383
:1025F0007A0080917A00806880937A00109222039A
:102600001092B1021092B0028091D7008160809345
:10261000D70080EA8093D80089B5806189BD89B5EB
:10262000826089BD09B400FEFDCF61E070E080E00A
:1026300090E00E943D118091D8008F7C8061809352
:10264000D8008091E000807F8093E0008091E100DD
:102650008E7E8093E1008DE08093E200EFE7F1E071
:102660002491E0E6F1E08491882399F090E0880FCE
:10267000991FFC01E653FF4FA591B491FC01EB5B60
:10268000FE4F859194918FB7F894EC91E22BEC93E7
:102690008FBF109224031092230310926D031092A7
:1026A0008F0310926B0381E080936A0310924503BD
:1026B00061E082E00E94D91061E083E00E94D910BD
:1026C0008091B9008E7F8093B9008091B9008D7F91
:1026D0008093B90088E48093B80085E48093BC00BF
:1026E00088E196E09093B5028093B40289E196E088
:1026F0009093B3028093B20260E880E00E94FA0DEA
:102700006AE070E080E090E00E943D1160E070E0DF
:102710008AE794E40E94771160E070E080E792E439
:102720000E9477118FEF9FEF90939D0380939C03FE
:10273000109107016AE070E080E090E00E943D1196
:10274000111115C061E08DE00E94D91062E370E0C4
:1027500080E090E00E943D1160E08DE00E94D91081
:1027600062EC71E080E090E00E943D11E1CF1DE05D
:10277000E12E11E0F12E00E010E0C8010E94EC1AF9
:10278000D7018D937D010F5F1F4F06311105A9F70A
:1027900080910D0190910E01A0910F01B091100157
:1027A0008F3E9E4BAD4ABE4DB9F08FEE9EEBADEA2B
:1027B000BEED80930D0190930E01A0930F01B09395
:1027C00010018AE28093110169E271E082E191E0F7
:1027D0000E94061F0E94500D3E9A469A809A889841
:1027E000819A8998559A5D9880EF80937E008FE05A
:1027F00080937D0084E480937C008FE880937A004E
:1028000010927B001092E0031092F3030E94710D6E
:102810006A9A729880E190E09093CD008093CC000A
:1028200082E08093C80080E88093C90086E08093AE
:10283000CA0084B1876084B9289A86ED8CBD8DB5B5
:102840008E7F8DBD6E9A769A279A2F98E5EFF3E0EA
:1028500085E794E0119211928E179F07D9F7109295
:10286000F4031EBC8AB1837F8AB98BB1837F8BB995
:1028700084B18F7984B985B18F7985B980EF8093E0
:102880008C041092950480E5809369008CE08DBBE8
:1028900081E08093680080E680936B0088E18093FC
:1028A000810083E080938000109285001092840064
:1028B00085E09FEF90938900809388008FEF9FEFD2
:1028C00090938B0080938A0084E086BB80936F0096
:1028D000809181008360809381008FEF80938B04CF
:1028E00010928E0410928D041092900410928F0416
:1028F00010929204109291041092940410929304F6
:1029000022242A94B3E03B2E412C512CCC24C39496
:10291000D12C80E993E00E94CC05892B09F447C0B3
:1029200080E993E00E946507E091D7028A3011F0B8
:102930008D3079F51E166CF70E2E000CFF0BEA5445
:10294000FD4F108260E270E086EB92E00E94F21E82
:10295000009731F08C010F5F1F4FDC011C9202C009
:1029600000E010E066EB72E0CE0107960E9481075E
:10297000CE0107960E9447106CE771E0CE010796E2
:102980000E94B50E882309F48AC001151105B9F417
:1029900086C0E0320CF0BDCF91E09E0F9093D7023D
:1029A0000E2E000CFF0BEA54FD4F8083B2CF80E067
:1029B00090E0892B09F4ADCF0E940000A7CFC80199
:1029C0000E94081A892B11F460E001C061E08DE0DB
:1029D0000E94D910EE24E394F12C33C06AE871E030
:1029E000CE0107960E94B50E811165C066ED71E0BB
:1029F000CE0107960E94B50E81116CC069E971E0A5
:102A0000CE0107960E94B50E882309F468C001150F
:102A1000110509F464C0C8010E94081A80931101CD
:102A20000E94500D6091110170E080E090E04AE05A
:102A30000E94420E86EA91E00E94300EE2E0EE2E05
:102A4000F12CB801CE0101960E948107CE010196BA
:102A50000E944710AD80BE80BFEFAB16BB0691F061
:102A60000115110579F0A114B10411F4F80109C0A0
:102A700069817A81A501C8010E940D1FF801EA0D44
:102A8000FB1D108269EA71E0CE0107960E94B50E27
:102A9000882309F471C00115110569F56DC06BEB50
:102AA00071E0CE0107960E94B50E882309F496CFF7
:102AB00084E891E011C00115110509F497CF41E1B7
:102AC00050E0B80182E191E00E940D1F10922201B6
:102AD0000E94500D82E191E00E945B10AFCF65EE45
:102AE00071E0CE0107960E94B50E81119BCFEE24B6
:102AF000EA94FE2CA6CF60E270E0C8010E94F21EAC
:102B00005C01892B09F4D7C0D5011D92CD0160E28B
:102B100070E00E94F21E009709F4CDC0FC011192F2
:102B2000CF010E94081A97FD0BC08115F2E09F07A4
:102B300054F4AC0173E0559547957A95E1F705C0DB
:102B400040E050E002C040EC5FEFD8018C918D3640
:102B500009F0B1C011968C918153F50191819C3699
:102B600031F0923711F063E003C062E001C061E030
:102B7000843008F0A0C088C062EF71E0CE010796F3
:102B80000E94B50E882309F482C00115110509F4CD
:102B90007EC060E270E0C8010E94F21E3C01892BF9
:102BA00009F489C0D3011D92CD0160E270E00E945A
:102BB000F21E009709F47FC04C01BFEF8B1A9B0AED
:102BC000FC01108260E270E0C4010E94F21E5C0110
:102BD000009709F470C0DC011C92C4010E94081A1D
:102BE00097FD7DC08115B2E09B070CF07BC04C01C6
:102BF00063E0959487946A95E1F7F80180818D36BA
:102C000009F059C011811153D30111968C918C3662
:102C100009F46FC0823709F46AC003E0143008F089
:102C20004AC0C50101960E94081A212F30E0220FE8
:102C3000331F43E050E0022E01C0440F0A94EAF72C
:102C4000409550919504642F6523A601022E01C082
:102C5000440F0A94EAF7462B409395049195819589
:102C60009109F901E357FB4F9183808320918C04F4
:102C7000C601012E01C0880F0A94EAF7822B8093C7
:102C80008C04482D602F812F0E94490F46C360E0BD
:102C900072E0CE0107960E94B50E882361F10115FE
:102CA000110549F1F80180818D3629F4F80121815F
:102CB0002153243068F1B2E0EB16F10419F0C7019A
:102CC0000E94830E0E94250E1092D70289819A815C
:102CD0000E948D1D8F8198850E948D1D1ACE812C9A
:102CE000912C8BCF50EC852E99249A9486CF02E0BC
:102CF00095CF01E093CF65E172E0CE0107960E9487
:102D0000B50E882309F44FC00115110589F44BC095
:102D100080918C0490E002C0959587952A95E2F702
:102D200080FF03C081E090E0CBCF80E090E0C8CF8F
:102D300060E270E0C8010E94F21E5C01892B09F478
:102D4000BACFD5011D92CD0160E270E00E94F21E63
:102D5000FC011082D8018C918D3609F0ACCF119610
:102D60008C918153F5019181963679F0943709F071
:102D7000A2CF20918C0440E150E002C0440F551FC7
:102D80008A95E2F7CA01822B0BC090918C0420E156
:102D900030E001C0220F8A95EAF7822F80958923BF
:102DA00080938C04BAC26DE272E0CE0107960E9455
:102DB000B50E882319F00115110571F468E372E06E
:102DC000CE0107960E94B50E882309F4A2C0011512
:102DD000110509F044C09DC060E270E0C8010E9486
:102DE000F21E5C01892B09F466CFD5011D92CD013D
:102DF00060E270E00E94F21E009709F45CCFFC01D3
:102E00001192CF010E94081A97FD0BC08115F2E0C4
:102E10009F0754F4AC01B3E055954795BA95E1F797
:102E200005C040E050E002C040EC5FEFD8018C915B
:102E30008F3609F040CF11968C918153F501918125
:102E4000913321F0923321F060E003C061E001C0D2
:102E500062E0883008F02FCF0E94E90E5EC260E287
:102E600070E0C8010E94F21EFC01892B09F423CFF7
:102E7000D80111969C9111971082E181E257E530BB
:102E800008F019CF8FEC890F883008F014CFF0E0EC
:102E9000EC5BFE4F4081433609F40DCF9C9199368F
:102EA00009F009CFF60102C0EE0FFF1F8A95E2F785
:102EB000CF012091F103411105C03091F2033E236F
:102EC00099F006C0423041F43091F2033E2361F4A0
:102ED000322F382349F021C2322F3E2309F41DC27C
:102EE0003E2F3095232301C0282B2093F1033091EE
:102EF000F203282F2095423010F4832B02C0832F39
:102F000082238093F2038091F30328232093F30319
:102F100004C267E472E0CE0107960E94B50E8823D2
:102F200019F00115110571F461E572E0CE01079603
:102F30000E94B50E882309F45DC00115110509F042
:102F400089C058C0D80111968C918153883008F0FF
:102F5000B2CED8019C91993609F0ADCEE82FF0E0C1
:102F60002091F10330E0082E02C0359527950A9490
:102F7000E2F720FD07C0960102C0220F331F8A9599
:102F8000E2F719C02091F20330E0082E02C0359517
:102F900027950A94E2F720FF03C00E94DE1928C09B
:102FA0000E94DE1951E040E0843F914008F050E07B
:102FB000852F942F1DC08091F30390E082239323EB
:102FC000892B39F48FE891E00197F1F700C00000F8
:102FD000F2CFEE0FFF1FE052FC4F21813281A0E1C2
:102FE000B7E20E94391BA20191010E94D01CC901C5
:102FF000BC0126C062E672E0CE0107960E94B50EC3
:10300000882309F463C00115110509F45FC0F801B4
:1030100081819FECB92EB80EF3E0FB1508F44BCE7E
:10302000D8018C91833609F046CE8B2D0E94750F06
:10303000EB2DF0E0EE0FFF1FE357FB4F6081718136
:1030400080E090E04AE00E94420E86EA91E00E9411
:10305000300E38CE60E270E0C8010E94F21EFC0122
:10306000892B09F428CED80111969C911197915380
:10307000E181E156E23108F01ECEF0E0EE5CFE4F59
:103080002081983008F017CE233609F414CE8C91A5
:10309000833609F010CE892F90E0880F991F43E006
:1030A00050E0082E01C0440F0A94EAF74095909131
:1030B0009504492330E0F90102C0EE0FFF1F8A9505
:1030C000E2F7CF01842B8093950427C16EE672E06E
:1030D000CE0107960E94B50E8823B9F0011511059F
:1030E000A1F0D8011196EC91E153E43008F0E3CD62
:1030F000D8018C91833609F0DECDF0E0EE0FFF1F92
:10310000E357FB4F1182108208C16CE772E0CE01D9
:1031100007960E94B50E8823A1F00115110589F0CC
:10312000F80181818153843008F0C5CDF801908188
:10313000933609F0C0CD0E94D40EF1E08F2790E0C5
:10314000BFCD6EE872E0CE0107960E94B50E8823CF
:10315000A1F10115110589F1D8018C91863661F430
:10316000809171008D7F8093710072988091C90069
:103170008F7E8093C900D1C0843709F09CCD21E0B7
:1031800020937804109277048FEF80937A048093D1
:103190007904809195048C7F80939504109290001F
:1031A0008BE08093910043E254EF50939900409359
:1031B000980082E080937100B0C060EA72E0CE01B6
:1031C00007960E94B50E982E882381F020917904ED
:1031D0002F3F49F080917A0490E050E8259F800DC0
:1031E000911D11246DCD8FEF9FEF6ACD63EB71E0E0
:1031F000CE0107960E94B50E882309F45CCD011517
:10320000110509F458CD60E270E0C8010E94F21E79
:10321000009709F450CD5C016FEFA61AB60ADC01E5
:103220001C9260E270E0C5010E94F21E009709F452
:1032300042CDFC011192CF010E94081A8115F0E1E4
:103240009F0734F4181619063CF4882EF92E06C090
:10325000812C50E1F52E02C0812CF12CC5010E9479
:10326000081A811520E1920734F4181619063CF467
:10327000B82EE92E06C0B12C40E1E42E02C0B12CDC
:10328000E12CC8010E94081A8F3091052CF4181601
:10329000190624F4982E02C03FE0932E80919604E4
:1032A00031E030936C0380938E0310926D03109283
:1032B0008F03809197049091980444E0949EB0010C
:1032C00011246A5F7F4FDC01ED91FC910190F08148
:1032D000E02D09956B2D7E2D809197049091980497
:1032E0000E94D7196E2D70E08091970490919804F8
:1032F0000E94D719682D7F2D809197049091980492
:103300000E94D7196F2D70E08091970490919804D6
:103310000E94D71981E00E949E0DEE24E394F12CC7
:10332000CECCCF93DF93E0E9F3E01382128288EEF4
:1033300093E0A0E0B0E084839583A683B7832CE577
:1033400031E0318320832FEF3FEF35872487E5EA93
:10335000F4E01382128284839583A683B7838EE67A
:1033600091E091838083A0EEB3E08FEF51968C9330
:10337000519752961C92529753961C92539754967B
:103380001C928093790480937A0480E1ABE7B4E0E7
:10339000ED0119928A95E9F7A6E9B4E080E48C93EF
:1033A0001296FC93EE931197DF91CF910895DC0173
:1033B000ED91FC910190F081E02D09948830F8F4B2
:1033C000E82FF0E021E030E002C0220F331F8A95A1
:1033D000E2F78091F30390E082239323892B39F461
:1033E0008FE891E00197F1F700C00000F2CFEE0FF7
:1033F000FF1FE052FC4F0180F281E02D02C0E0E0AF
:10340000F0E0EE0FFF1FE055FE4F85919491089577
:10341000FC0188279927E89421912032E9F329308B
:1034200010F02E30C8F32B3241F02D3239F468946D
:1034300004C00E94261A820F911D219120532A3028
:10344000C0F31EF4909581959F4F08957AE0979F61
:10345000902D879F802D910D112408950E94411A6F
:103460000C94B21A0E94A41A38F00E94AB1A20F0F1
:10347000952311F00C949B1A0C94A11A11240C940E
:10348000E61A0E94C31A70F3959FC1F3950F50E09E
:10349000551F629FF001729FBB27F00DB11D639F06
:1034A000AA27F00DB11DAA1F649F6627B00DA11DAC
:1034B000661F829F2227B00DA11D621F739FB00D52
:1034C000A11D621F839FA00D611D221F749F3327C2
:1034D000A00D611D231F849F600D211D822F762F5B
:1034E0006A2F11249F5750409AF0F1F088234AF038
:1034F000EE0FFF1FBB1F661F771F881F91505040A4
:10350000A9F79E3F510580F00C949B1A0C94E61A83
:103510005F3FE4F3983ED4F3869577956795B7952A
:10352000F795E7959F5FC1F7FE2B880F911D969544
:10353000879597F9089597F99F6780E870E060E0B4
:1035400008959FEF80EC089500240A94161617063C
:1035500018060906089500240A9412161306140684
:1035600005060895092E0394000C11F4882352F0E7
:10357000BB0F40F4BF2B11F460FF04C06F5F7F4F9F
:103580008F4F9F4F089557FD9058440F551F59F086
:103590005F3F71F04795880F97FB991F61F09F3F40
:1035A00079F087950895121613061406551FF2CF69
:1035B0004695F1DF08C0161617061806991FF1CFB9
:1035C00086957105610508940895E894BB276627E0
:1035D0007727CB0197F90895F999FECF92BD81BD68
:1035E000F89A992780B50895262FF999FECF1FBA2A
:1035F00092BD81BD20BD0FB6F894FA9AF99A0FBE1C
:10360000019608952F923F924F925F926F927F9210
:103610008F929F92AF92BF92CF92DF92EF92FF92E2
:103620000F931F93CF93DF93CDB7DEB7CA1BDB0B8E
:103630000FB6F894DEBF0FBECDBF09942A88398833
:1036400048885F846E847D848C849B84AA84B9843A
:10365000C884DF80EE80FD800C811B81AA81B98146
:10366000CE0FD11D0FB6F894DEBF0FBECDBFED015A
:103670000895A29FB001B39FC001A39F700D811D4B
:103680001124911DB29F700D811D1124911D08956B
:103690005058BB27AA270E94601B0C94B21A0E94A4
:1036A000A41A38F00E94AB1A20F039F49F3F19F4A5
:1036B00026F40C94A11A0EF4E095E7FB0C949B1AE7
:1036C000E92F0E94C31A58F3BA17620773078407D9
:1036D000950720F079F4A6F50C94E51A0EF4E09520
:1036E0000B2EBA2FA02D0B01B90190010C01CA01BC
:1036F000A0011124FF27591B99F0593F50F4503E67
:1037000068F11A16F040A22F232F342F4427585F58
:10371000F3CF469537952795A795F0405395C9F770
:103720007EF41F16BA0B620B730B840BBAF0915028
:10373000A1F0FF0FBB1F661F771F881FC2F70EC0C7
:10374000BA0F621F731F841F48F48795779567959A
:10375000B795F7959E3F08F0B0CF9395880F08F086
:103760009927EE0F9795879508950E94C91B0C9491
:10377000B21A0E94AB1A58F00E94A41A40F029F421
:103780005F3F29F00C949B1A51110C94E61A0C948B
:10379000A11A0E94C31A68F39923B1F3552391F338
:1037A000951B550BBB27AA2762177307840738F0B0
:1037B0009F5F5F4F220F331F441FAA1FA9F335D00D
:1037C0000E2E3AF0E0E832D091505040E695001CC1
:1037D000CAF72BD0FE2F29D0660F771F881FBB1F7B
:1037E000261737074807AB07B0E809F0BB0B802D59
:1037F000BF01FF2793585F4F3AF09E3F510578F085
:103800000C949B1A0C94E61A5F3FE4F3983ED4F3B1
:10381000869577956795B795F7959F5FC9F7880F58
:10382000911D9695879597F90895E1E0660F771FAA
:10383000881FBB1F621773078407BA0720F0621B3B
:10384000730B840BBA0BEE1F88F7E09508950E9466
:10385000CB1A88F09F5798F0B92F9927B751B0F03D
:10386000E1F0660F771F881F991F1AF0BA95C9F704
:1038700014C0B13091F00E94E51AB1E008950C94A3
:10388000E51A672F782F8827B85F39F0B93FCCF356
:10389000869577956795B395D9F73EF49095809581
:1038A000709561957F4F8F4F9F4F08950E94961C92
:1038B00090F09F3748F4911116F00C94E61A60E0EE
:1038C00070E080E89FEB089526F41B16611D711DC2
:1038D000811D0C946D1C0C94881C882371F4772333
:1038E00021F09850872B762F07C0662311F4992773
:1038F0000DC09051862B70E060E02AF09A95660F1B
:10390000771F881FDAF7880F9695879597F908959E
:103910009F3F31F0915020F4879577956795B79543
:10392000880F911D9695879597F908950E94CB1A57
:10393000A0F0BEE7B91788F4BB279F3860F41616CD
:10394000B11D672F782F8827985FF7CF86957795D9
:103950006795B11D93959639C8F30895A1E21A2E83
:10396000AA1BBB1BFD010DC0AA1FBB1FEE1FFF1F23
:10397000A217B307E407F50720F0A21BB30BE40B73
:10398000F50B661F771F881F991F1A9469F76095BA
:103990007095809590959B01AC01BD01CF01089574
:1039A000052E97FB1EF400940E94E71C57FD07D0DC
:1039B0000E94AE1C07FC03D04EF40C94E71C5095FB
:1039C0004095309521953F4F4F4F5F4F089590950B
:1039D0008095709561957F4F8F4F9F4F0895EE0FA3
:1039E000FF1F0590F491E02D09940F931F93CF933F
:1039F000DF938230910510F482E090E0E091BC0406
:103A0000F091BD0420E030E0A0E0B0E0309719F183
:103A1000408151810281138148175907C8F08417EA
:103A2000950769F4109731F012960C93129713963C
:103A30001C9327C00093BC041093BD0422C0211521
:103A4000310519F04217530718F49A01BD01EF012F
:103A5000DF01F801DBCF21153105F9F0281B390B07
:103A60002430310580F48A819B816115710521F034
:103A7000FB019383828304C09093BD048093BC04B4
:103A8000FE01329644C0FE01E20FF31F8193919331
:103A900022503109398328833AC02091BA043091E9
:103AA000BB04232B41F42091250130912601309352
:103AB000BB042093BA0420912301309124012115E5
:103AC000310541F42DB73EB74091270150912801AF
:103AD000241B350BE091BA04F091BB04E217F30705
:103AE000A0F42E1B3F0B2817390778F0AC014E5F6E
:103AF0005F4F2417350748F04E0F5F1F5093BB04EC
:103B00004093BA048193919302C0E0E0F0E0CF01CA
:103B1000DF91CF911F910F910895CF93DF9300977D
:103B200009F481C0FC01329713821282A091BC0477
:103B3000B091BD04109781F420813181820F931FD1
:103B40002091BA043091BB042817390751F5F0933E
:103B5000BB04E093BA0467C0ED0120E030E0CE176B
:103B6000DF0740F44A815B819E0141155105F1F068
:103B7000EA01F5CFD383C28340815181840F951F21
:103B8000C817D90759F488819981840F951F029627
:103B9000918380838A819B81938382832115310560
:103BA00029F4F093BD04E093BC043DC0E901FB831C
:103BB000EA8349915991C40FD51FEC17FD0761F4B1
:103BC00080819181840F951F0296E90199838883F2
:103BD000828193819B838A83E0E0F0E012968D914D
:103BE0009C911397009719F0FD01DC01F7CF8D919F
:103BF0009C9111979D012E5F3F4F820F931F209143
:103C0000BA043091BB042817390769F4309729F4B6
:103C10001092BD041092BC0402C013821282B093B1
:103C2000BB04A093BA04DF91CF910895A0E0B0E067
:103C3000ECE1FEE10C94061BEC01009721F4CB01B2
:103C40000E94F51CB4C0FC01E60FF71F9C01225036
:103C50003109E217F30708F4A8C0D9010D911C91AE
:103C6000119706171707B0F00530110508F49BC02F
:103C7000C80104978617970708F495C002501109E8
:103C8000061B170B019311936D937C93CF010E9438
:103C90008D1D89C05B01A01AB10A4C01800E911ED6
:103CA000A091BC04B091BD04612C712CE12CF12CCD
:103CB000109709F446C08D919C911197A815B905EC
:103CC000B1F56C0142E0C40ED11CCA14DB0478F1DA
:103CD0004C018A189B08640142E0C40ED11C129664
:103CE000BC9012971396AC91B5E0CB16D10440F07E
:103CF000B282A38391828082D9016D937C9309C0A3
:103D00000E5F1F4F800F911FF90191838083EB2D70
:103D1000FA2FE114F10431F0D7011396FC93EE93DE
:103D2000129741C0F093BD04E093BC043CC06816F8
:103D3000790608F43C017D0112960D90BC91A02DEE
:103D4000B7CF8091BA049091BB0488169906E1F42C
:103D500066167706C8F4809123019091240100979C
:103D600041F48DB79EB74091270150912801841BE3
:103D7000950BE817F907C8F4F093BB04E093BA0475
:103D8000F901718360830FC0CB010E94F51C7C0197
:103D9000009759F0A801BE010E94E91ECE010E94C1
:103DA0008D1DC70104C0CE0102C080E090E0CDB7F8
:103DB000DEB7EEE00C94221B81E090E0F8940C94C6
:103DC0001C1F9111089581548A5108F4805E855A10
:103DD0000895FB01DC0102C001900D92415050405A
:103DE000D8F70895FC018191861721F08823D9F72F
:103DF000992708953197CF010895FB01DC018D913A
:103E0000019080190110D9F3990B0895FB01DC0191
:103E100001900D920020E1F70895FB01DC01415073
:103E2000504048F001900D920020C9F701C01D924A
:0C3E300041505040E0F70895F894FFCF97
:103E3C0000E1000000000000FFFFFFFFFF0000009A
:103E4C00002A66744475696E6F0000000000000063
:103E5C000000000000BE04800066744475696E6F3B
:103E6C000000036363636302636363636363630000
:103E7C0063636301000263630100C1808100000081
:103E8C00800140040220081000000000B605DC068A
:103E9C006107A806CC0565077107000000007306D2
:103EAC004606A3061A063E062A061B066C65645FC8
:103EBC0073657400312E322E300066746475696E31
:103ECC006F5F69645F736574006932635F6164641A
:103EDC00725F736574000D0A006D6F746F725F739F
:103EEC0065740070776D5F736574006674647569D2
:103EFC006E6F5F6469726563745F6765745F766526
:103F0C007273696F6E0066746475696E6F5F696455
:103F1C005F676574006932635F616464725F6765D3
:103F2C0074006D6F746F725F636F756E7465720081
:103F3C006D6F746F725F636F756E7465725F6163C2
:103F4C0074697665006D6F746F725F636F756E74F4
:103F5C0065725F7365745F6272616B65006F757417
:103F6C007075745F73657400696E7075745F7365DA
:103F7C00745F6D6F646500696E7075745F676574EE
:103F8C0000636F756E7465725F7365745F6D6F64DB
:103F9C006500636F756E7465725F67657400636F3F
:103FAC00756E7465725F636C65617200636F756EBC
:103FBC007465725F6765745F737461746500756CAA
:103FCC00747261736F6E69635F656E61626C6500BC
:103FDC00756C747261736F6E69635F6765740000F2
:00000001FF
